:020000040800F2
:1000000010AD002061020008854B00080F3D00087C
:10001000814B0008910B0008A16800080000000057
:10002000000000000000000000000000A101000826
:100030004F0E000800000000FD010008B16000083C
:100040007B0200087B0200087B0200087B0200089C
:100050007B0200087B0200087B0200087B0200088C
:100060007B0200087B0200087B0200087B0200087C
:100070007B0200087B0200087B0200087B0200086C
:100080007B0200087B0200087B0200087B0200085C
:100090007B0200087B0200087B0200087B0200084C
:1000A0007B0200087B0200087B0200087B0200083C
:1000B000916100087B0200087B0200087B020008B7
:1000C0007B0200087B0200087B0200087B0200081C
:1000D0007B0200087B0200087B0200087B0200080C
:1000E0007B0200087B0200087B0200087B020008FC
:1000F0007B0200087B0200087B0200087B020008EC
:100100007B020008614C00087B0200087B020008AB
:100110007B0200087B0200087B0200087B020008CB
:100120007B0200087B0200087B020008250D000806
:100130007B0200087B0200087B0200087B020008AB
:100140007B0200087B0200087B0200087B0200089B
:100150007B020008350D00087B0200087B020008C6
:100160007B0200087B0200087B0200087B0200087B
:100170007B0200087B0200087B02000800000000F0
:100180007B0200087B020008DFF810D000F080FB43
:100190000048004715A90008AFF3008010AD00200B
:1001A0002C4B19680868B0E8F04F80F30988BFF35A
:1001B0006F8F4FF0000080F311887047000000003F
:1001C00008480068006880F308884FF0000080F35A
:1001D000148862B661B6BFF34F8FBFF36F8F00DF35
:1001E00000BF00BF08ED00E0DFF80C00016841F43B
:1001F00070010160704700BF88ED00E0EFF30980F7
:10020000BFF36F8F134B1A681EF0100F08BF20ED5D
:10021000108A20E9F04F106009B44FF0500080F3CD
:100220001188BFF34F8FBFF36F8F0CF0FBFA4FF0C5
:10023000000080F3118809BC19680868B0E8F04F25
:100240001EF0100F08BFB0EC108A80F30988BFF3CE
:100250006F8F704704010020EFF3058070470000A6
:100260000648804706480047FEE7FEE7FEE7FEE750
:10027000FEE7FEE7FEE7FEE7FEE7FEE77D6100083A
:10028000890100082DE9F05F0546002092469B4653
:1002900088460646814640241BE02846414647469C
:1002A000224600F056F953465A46C01A914110D3DF
:1002B00011461846224600F03DF92D1A67EB010859
:1002C0004F4622460120002100F034F917EB0009C7
:1002D0004E41201EA4F10104DFDC484631462A4687
:1002E0004346BDE8F09F40EA01039B0703D009E0C5
:1002F00008C9121F08C0042AFAD203E011F8013B12
:1003000000F8013B521EF9D27047D2B201E000F86A
:10031000012B491EFBD270470022F6E710B51346A9
:100320000A4604461946FFF7F0FF204610BD421E5C
:1003300012F8013F002BFBD111F8013B02F8013B01
:10034000002BF9D17047421C10F8011B0029FBD18A
:10035000801A704730B504460020034600E05B1C5D
:10036000934203D2E05CCD5C401BF8D030BD034625
:1003700011F8012B00F8012B002AF9D1184670471B
:100380002DE9F04D81EA030404F0004B21F0004513
:1003900014464FF0000A23F0004150EA050220D035
:1003A00054EA01021DD0C5F30A570246C5F31303F0
:1003B000C1F31300C1F30A5640F4801543F48013CF
:1003C000A7EB0608101BD64608F2FD3873EB0500B4
:1003D00002D308F1010801E092185B41B8F1000F67
:1003E00003DA00200146BDE8F08D00204FF48011B3
:1003F000064684460EE0171B73EB050705D3121B58
:1004000063EB050306434CEA010C49084FEA300050
:1004100092185B4150EA0107EDD152EA030012D075
:1004200082EA040083EA0501084305D0101BAB41B2
:1004300006D20122002306E000224FF0004302E032
:100440006FF0010253101AEB06004CEB085110EB51
:100450000A0041EB0B01BDE8F04D00F08AB80EB583
:10046000C10F80EAE0700844CA07002140F233431C
:100470008DE80E000A460B4600F08AF803B000BD76
:1004800000F0004230F000400AD0C10D01F560716B
:10049000C0F3160042EA0151C208400711437047F9
:1004A000002001467047000030B5041E71F10004C1
:1004B00004DB4FF00044404264EB0101141E73F171
:1004C000000405DB1C464FF00043524263EB04037B
:1004D0008B4208BF824230BD30B5041E71F100046A
:1004E00004DB4FF00044404264EB0101141E73F141
:1004F000000405DB1C464FF00043524263EB04034B
:10050000994208BF904230BD30B50B4601460020ED
:100510002022012409E021FA02F59D4205D303FAC5
:1005200002F5491B04FA02F52844151EA2F1010246
:10053000F1DC30BD202A04DB203A00FA02F1002071
:1005400070479140C2F1200320FA03F31943904011
:100550007047202A04DB203A21FA02F0002170477C
:1005600021FA02F3D040C2F120029140084319461B
:10057000704710B5141E73F1000408DA401C41F1F5
:10058000000192185B411A4301D120F0010010BD17
:100590002DE9F04D92469B4611B1B1FA81F202E08D
:1005A000B0FA80F220329046FFF7C4FF04460F46AF
:1005B00040EA0A0041EA0B0153465A46084313D069
:1005C000114653EA010019D0C8F140025046FFF726
:1005D000C0FF05460E46504659464246FFF7AAFF61
:1005E000084305D0012004E020463946BDE8F08DDF
:1005F0000020054346EAE0762C4337430A9863051A
:10060000E40AA0EB08000022FD0A44EA47540A303D
:1006100002D500200146E9E7010510196941DDE92D
:10062000084500196941BDE8F04DA2E72DE9FE4FEC
:10063000804681EA0300C00F0C46009021F0004183
:1006400023F00045B8EB0200A94105D240462146FF
:1006500090461C460B46024623F00040104347D00C
:10066000270DC7F30A00C3F30A510290401A019004
:1006700040286BDAC3F3130040F4801B00989246C5
:1006800020B10023D2EB030A63EB0B0B0198594610
:10069000C0F140025046FFF74DFF06460D4650465A
:1006A0005946019A00F006F910EB08006141002458
:1006B00087EA115284EAE7731A4340D0009A62B382
:1006C000019A012A4FEA075215DC001B61EB020177
:1006D0004FF0004202EA0752CDE90042001C41F50A
:1006E000801132462B46FFF753FF03B0BDE8F08F71
:1006F00040462146F9E7001B61EB0201001C41F571
:10070000801300185B412018A2F5001747EB030186
:1007100040EAD570B6196D4111E06D084FEA360612
:1007200045EAC0754FEA0752001B61EB0201001C4D
:1007300041F5801149084FEA300000195141324615
:100740002B4603B0BDE8F04FFFF713BF009801221E
:1007500040000023D0EB020263EBE07300982146D7
:100760004FEAE074B8EB000061EB0401E9E783F0C5
:1007700000435BE781F0004158E72DE9FE4F81EA35
:10078000030404F0004421F0004100944FF0000BFA
:1007900023F0004350EA01045ED052EA03045BD028
:1007A000C3F30A54C1F30A552C44A4F2F334019460
:1007B000A0FB0254C1F3130141F48011C3F31303EE
:1007C00043F4801301FB024400FB034E840A970AA2
:1007D00044EA815447EA8357A4FB076802958D0ACF
:1007E00005FB07854FEA932C04FB0C542705029D5B
:1007F0004FEA065847EA1637B5EB08056EEB070CCB
:10080000870E920E47EA811742EA8312A7FB020184
:10081000B6EB0B0164EB00042B0D43EA0C335E18BE
:1008200044EB1C50DA465146E7FB0201C5F31304C2
:100830004FEA0B3343EA14534FEA0432019C43EA74
:100840000603A4F10C040294009CCDE900B4FFF768
:100850009FFE03B0BDE8F08F00200146F9E7C1F329
:100860000A52C1F3130140F2FF3341F480119A425E
:1008700002DA00200146704740F233439A42A2F266
:10088000334202DC5242FFF764BEFFF753BE000062
:10089000064C074D06E0E06840F0010394E80700CD
:1008A00098471034AC42F6D3FFF772FC40200108A1
:1008B00060200108202A06DBCB17203A41FA02F01B
:1008C00043EAE07306E041FA02F3D040C2F12002AD
:1008D000914008431946704770B58C1810F8015BB9
:1008E00015F0070301D110F8013B2A1106D110F8C9
:1008F000012B03E010F8016B01F8016B5B1EF9D1CD
:100900002B0705D40023521E0DD401F8013BFAE752
:1009100010F8013BCB1A921C03E013F8015B01F8BD
:10092000015B521EF9D5A142D8D3002070BD000052
:1009300010B5064800F0D4FC0A21044800F068FC19
:10094000024800F0EDFB80B210BD0000B4010020B1
:1009500070B504460025002600BF03E0FFF7E8FF5E
:100960000544761CA642F9D3B5FBF4F070BD000037
:1009700055494A6822F440324A604A6843681A433B
:100980004A600268526822F4807203685A60026802
:100990005368026943EA022203685A600268526897
:1009A00022F0407203685A600268526883681A43F2
:1009B00003685A600268926822F4006203689A60D1
:1009C00002689268C3681A4303689A603F4B826A60
:1009D0009A4218D00268926822F0706203689A60A6
:1009E00002689268836A1A4303689A600268926890
:1009F00022F0405203689A6002689268C36A1A4300
:100A000003689A600BE00268926822F070620368E3
:100A10009A600268926822F0405203689A60026805
:100A2000926822F0020203689A6002689368027E6C
:100A300043EA420203689A602022125CA2B1026873
:100A4000526842F4006203685A600268526822F4F5
:100A5000604203685A6002685368426A521E43EA61
:100A6000423203685A6005E00268526822F400626C
:100A700003685A600268D26A22F470020368DA627C
:100A80000268D36A828B521E43EA02520368DA621A
:100A90000268926822F4007203689A6002689368A0
:100AA00090F8302043EA422203689A600268926814
:100AB00022F4806203689A6002689368426943EA9C
:100AC000822203689A607047002301400100000FF2
:100AD000704700000146014801F0DABFBC02002067
:100AE00010B5044801F0E7FF042801D0012010BD33
:100AF000002010BDBC02002010B500F015F8012840
:100B000001D0012010BD074802F0F6F8044634B9C0
:100B10004FF40061034801F071FE00B1012420464A
:100B200010BD0000BC02002081B0012000909DF8A3
:100B3000000001B07047000010B5002413460A46BB
:100B40000146034802F010FA00B10124204610BD0E
:100B5000BC02002002480022012140680AF004B8CB
:100B60008001002010B5002413460A4601460348C0
:100B700002F0AAFA00B10124204610BDBC020020F8
:100B8000024800220221406809F0EEBF80010020E7
:100B900000BFFEE770B504464FF6FF7502E0012086
:100BA00007F0CCF84FF40071074800F0E9FFA042CD
:100BB00004D1281EA5F101018DB2F0D115B94FF075
:100BC000FF3070BD0020FCE70018024000B587B080
:100BD000142102A8FFF7A0FB00BF002001900D48E0
:100BE000006840F040000B4908600846006800F0CB
:100BF0004000019000BF00BF481502900020039004
:100C000004900320059002A9034800F0BFFE07B03E
:100C100000BD0000303802400018024000B587B027
:100C2000142102A8FFF778FB00BF002001900D48B7
:100C3000006840F040000B4908600846006800F07A
:100C40004000019000BF00BF4815029001200390B2
:100C500004900320059002A9034800F097FE07B016
:100C600000BD0000303802400018024010B50024DA
:100C700004E0012007F062F8601CC4B24FF4007178
:100C8000194800F07DFF012801D1642CF1DB642CB0
:100C900001DB012010BD002404E0012007F04EF824
:100CA000601CC4B24FF400710F4800F069FF08B92E
:100CB000642CF2DB642C01DB0220EBE7002404E06F
:100CC000012007F03BF8601CC4B24FF400710648E5
:100CD00000F056FF012801D1642CF1DB642C01DB0C
:100CE0000320D7E70020D5E70018024010B5FFF732
:100CF00095FF00BF00224FF40071094800F048FF43
:100D000000BF142000F08AFD00BF012251020448F8
:100D100000F03EFF00BF1E2007F010F810BD0000DD
:100D20000018024010B5024800F098FB10BD00000A
:100D30004003002010B5024800F090FB10BD0000F9
:100D4000A00300200146087810381823B0FBF3F206
:100D50000848805CC865032A05D908686FF3090054
:100D6000001D886503E008686FF309008865886DD9
:100D700070470000E4D60008014600208A6A8B69AB
:100D8000CBB932B1012A0DD0022A03D0032A10D1E7
:100D90000EE000BFCB6A03F08073B3F1807F00D117
:100DA000012007E0CB6AB3F1C07F00D1012001E050
:100DB00000E000BF34E08B69B3F5005F1AD132B1B7
:100DC000012A07D0022A03D0032A11D10AE000BF6A
:100DD00001200EE0CB6A03F08073B3F1807F00D175
:100DE000012006E0CB6AB3F1C07F00D1012000E012
:100DF00000BF15E032B1012A05D0022A04D0032A2F
:100E00000CD103E000BF00BF012008E0CB6A03F073
:100E10008073B3F1807F00D1012000E000BF00BFEC
:100E2000704730B50468246824F4802405682C6079
:100E3000046863608468402C04D10468A26004687C
:100E4000E16003E00468A1600468E26030BD7047BF
:100E500072B600BFFEE70022AFF3008010B48446F4
:100E600001200E4B5C7A002C16D1587A1C54587A0B
:100E700003EB8000C0F804C0587A03F1080C00F8B6
:100E80000C20587A421C5A72303008703A20487050
:100E90002F208870CC70002010BC704700A9002063
:100EA00070B50446B3F5804F13D1D1E9000540EA8F
:100EB00005108D6840EA05208D6928438D8940EA38
:100EC000054054F82250064E3540284344F822008D
:100ED00003E06FF0704044F82200002070BD000075
:100EE0000000F0CF70B50246086852F8200020F0EC
:100EF00001000E6842F826008868082801D14023C6
:100F000000E00023486818438E683043CE683043C1
:100F10000E6930434E693043CE6930430E6A304328
:100F20004E6A30438E6A3043CE6A30430E6B40EADD
:100F3000060488690443C86B0443074D45F4806583
:100F400045F4E025086852F82000A84320430E68C5
:100F500042F82600002070BD7FFB080010B5034654
:100F6000D1E9000440EA04108C6840EA04208C892E
:100F700040EA0444088A401E44EA0054087D801E6A
:100F800044EA00608C692043541C43F8240000208C
:100F900010BD000038B502460020009000BF92F856
:100FA0003C00012801D1022038BD012082F83C001C
:100FB00000BF0868092816D91068C0680C780A3C78
:100FC00004EB44050724AC40A0431468E0600C78AF
:100FD0000A3C04EB44048868A0401468E468204399
:100FE0001468E06013E0106800690C7804EB4405B5
:100FF0000724AC40A043146820610C7804EB44043F
:101000008868A040146824692043146820614868F7
:10101000072817D21068406B0C79641E04EB840516
:101020001F24AC40A04314686063088880B20C7928
:10103000641E04EB8404A0401468646B20431468AD
:10104000606331E048680D2817D21068006B0C7996
:10105000E41F04EB84051F24AC40A0431468206304
:10106000088880B20C79E41F04EB8404A040146863
:10107000246B20431468206316E01068C06A0C7962
:101080000D3C04EB84051F24AC40A0431468E062CF
:10109000088880B20C790D3C04EB8404A0401468ED
:1010A000E46A20431468E062194B1A4C1068A042AD
:1010B00006D10868122803D1586840F480005860AF
:1010C000144C1068A0421CD10868102802D008688F
:1010D000112816D1586840F400005860086810289C
:1010E0000FD10D4800680D4CB0FBF4F000EB800010
:1010F0004000009002E00098401E009000980028F8
:10110000F9D100BF002082F83C0000BF00BF4BE7D0
:1011100000230140002001404800002040420F0011
:1011200001460868C06C704770B5044600250CB9CC
:10113000012070BD1549A06A884200D000BF206C14
:1011400030B9204600F024F80020606484F83C00A8
:10115000206C00F0100088B9206C20F4885040F01A
:10116000020020642046FFF703FC00206064206C2E
:1011700020F0020040F00100206400E0012500BFE3
:10118000002084F83C0000BF2846D2E70100000F91
:1011900010B586B00446142101A8FFF7BDF819491F
:1011A000206888422BD100BF0020009016480068BC
:1011B00040F48060144908600846006800F48060CC
:1011C000009000BF00BF00BF002000900E48143800
:1011D000006840F020000C49143908600846006897
:1011E00000F02000009000BF00BF8020019003208D
:1011F00002900020039001A9044800F0C7FB06B04C
:1012000010BD00000022014044380240001402409A
:1012100070B504460D4600262068806800F48060A2
:10122000B0F5806F11D12068806800F48070B0F54F
:10123000807F0AD1206C40F02000206400BF002095
:1012400084F83C0000BF012070BD00F0A7FC0646FA
:1012500018E0681CB0B125B100F0A0FC801BA842CA
:1012600010D92068006800F0020002280AD0206C23
:1012700040F00400206400BF002084F83C0000BF60
:101280000320E1E72068006800F002000228E0D1B6
:101290006FF0120021680860206C40F40070206438
:1012A0002068806800F04050B8B9207EA8B9206856
:1012B000C06A00F4700020B12068806800F480608B
:1012C00058B9206C20F480702064206C00F48050A9
:1012D00018B9206C40F0010020640020B4E7000041
:1012E00008B501460020009000BF91F83C0001289D
:1012F00001D1022008BD012081F83C0000BF086830
:10130000806800F00100A0B90868806840F0010022
:101310000B6898603F4800683F4BB0FBF3F000EB70
:101320004000009002E00098401E009000980028C5
:10133000F9D10868806800F00100002860D0086CCE
:1013400040F20163984340F4807008640868406884
:1013500000F4806028B1086C20F4005040F4805004
:101360000864086C00F48050B0F5805F04D1486CCC
:1013700020F00600486401E00020486400BF00201F
:1013800081F83C0000BF254A6FF022000B6818600E
:10139000506800F01F0018BB214B0868984213D01A
:1013A000204B0868984204D1101D006800F01F000F
:1013B00050B11D4B086898422AD11848001D00689A
:1013C00000F01F00102823D20868806800F0405009
:1013D000F0B90868806840F080400B68986017E0BA
:1013E0000F4B0868984213D10868806800F040509D
:1013F00070B90868806840F080400B68986007E02A
:10140000086C40F010000864486C40F0010048642B
:1014100000206FE74800002040420F0000230140F9
:10142000002001400021014000220140014691F8C6
:101430003500022803D08020486501207047052030
:1014400081F835000868006820F001000A68106023
:101450000020F3E70146486D70470000F8B50446E8
:10146000002000908C4800684FF41651B0FBF1F753
:10147000A56D2E6894F85C1008208840304098B123
:101480002068006800F0040070B12068006820F057
:1014900004002168086094F85C1008208840A86067
:1014A000606D40F00100606594F85C100120884098
:1014B000304068B12068406900F0800040B194F885
:1014C0005C1001208840A860606D40F002006065FB
:1014D00094F85C1004208840304068B120680068AF
:1014E00000F0020040B194F85C1004208840A8602D
:1014F000606D40F00400606594F85C101020884036
:10150000304078B32068006800F0080050B394F8C9
:101510005C1010208840A8602068006800F48020DB
:1015200080B12068006800F4002028B9206CC8B1A0
:101530002046216C884715E0A06C98B12046A16C2C
:1015400088470FE02068006800F4807028B92068A0
:10155000006820F0080021680860206C10B1204667
:10156000216C884794F85C10202088403040002887
:1015700065D02068006800F0100000285FD094F863
:101580005C1020208840A86094F83500052828D1F8
:101590002068006820F01600216808602068406913
:1015A00020F0800021684861206C08B9A06C28B147
:1015B0002068006820F008002168086094F85C103A
:1015C0003F208840A860012084F8350000BF00203B
:1015D00084F8340000BF206D10B12046216D88478B
:1015E000F8BD2068006800F4802080B120680068A1
:1015F00000F4002028B9606C10B12046616C884767
:101600001DE0E06BD8B12046E16B884717E0206809
:10161000006800F4807068B92068006820F010004D
:1016200021680860012084F8350000BF002084F89C
:10163000340000BFE06B10B12046E16B8847606D5D
:1016400038B3606D00F00100F0B1052084F835007A
:101650002068006820F001002168086000BF009841
:10166000401C0090B84200D905E02068006800F0F6
:1016700001000028F3D100BF012084F8350000BF2D
:10168000002084F8340000BFE06C10B12046E16C0B
:10169000884700BFA4E70000480000202DE9F04182
:1016A0000446002500F07AFA074614B90120BDE887
:1016B000F081606A00B100BF022084F8350000BFED
:1016C000002084F8340000BF2068006820F001008A
:1016D000216808600AE000F061FAC01B052805D9FE
:1016E00020206065032084F83500E0E7206800686A
:1016F00000F001000028EED120680568214805406F
:10170000D4E901010843E16808432169084361699C
:101710000843A1690843E1690843216A0843054376
:10172000606A042803D1D4E90B010843054320680B
:1017300005602068456925F00705606A0543606A11
:1017400004280DD1A06A0543E06A48B12046FFF79E
:1017500013FB28B140206065012084F83500A6E71E
:10176000206845612046FFF7EDFA064694F85C10C4
:101770003F208840B06000206065012084F835007B
:10178000002094E73F8010F02DE9F04704460D4615
:1017900016461F464FF00008D4F8589000BF94F842
:1017A0003400012802D10220BDE8F087012084F82E
:1017B000340000BF94F83500012825D1022084F8B8
:1017C0003500002060653B46324629462046FFF73B
:1017D00028FB94F85C103F208840C9F80800206876
:1017E000006840F0160021680860206C28B120686D
:1017F000006840F00800216808602068006840F038
:1018000001002168086006E000BF002084F8340071
:1018100000BF4FF002084046C6E7000070B504461E
:1018200000F0BCF906462546681C10B10448007853
:10183000054400BF00F0B2F9801BA842FAD370BD86
:101840004400002000B587B0142102A8FEF764FD13
:101850004848006808B107B000BD0120454908604C
:1018600000BF002001904448006840F00100424958
:1018700008600846006800F00100019000BF00BF4A
:101880004EF23F00029002200390002004900320BB
:1018900005900C20069002A9384800F077F84FF424
:1018A00080500290022003900120049003200590B4
:1018B0000C20069002A9314800F068F840F23F4041
:1018C00002900220039000200490032005900C2039
:1018D000069002A92A4800F059F84FF6807002904D
:1018E0000220039001200490032005900C20069014
:1018F00002A9244800F04AF84CF23370029002200A
:10190000039001200490032005900C20069002A96A
:101910001D4800F03BF84FF4605002900220039005
:1019200000200490032005900C20069002A9164880
:1019300000F02CF84FF48050029002200390012018
:101940000490032005900C20069002A90C4800F09A
:101950001DF8032002900220039000200490032031
:1019600005900C20069002A9064800F00FF800BF71
:1019700071E70000340000203838024000140240B3
:101980000018024000100240000C0240F8B5024668
:101990000B460025002400200021D6E0012606FA8F
:1019A00001F51E6806EA0504AC4274D11E7906F002
:1019B0000306012E04D01E7906F00306022E13D171
:1019C00090684F000326BE40B0434F00DE68BE4023
:1019D00030439060506801268E40B0431E79C6F3B4
:1019E00000168E40304350601E7906F00306032E29
:1019F00009D0D0684F000326BE40B0434F009E6818
:101A0000BE403043D0601E7906F00306022E13D18B
:101A1000CF0802F1200656F827004E07F70E0F26D2
:101A2000BE40B0434F07FF0E1E69BE403043CF0893
:101A300002F1200646F8270010684F000326BE403A
:101A4000B0431E7906F003064F00BE4030431060DD
:101A50005E6806F44036002E76D000BF0026009661
:101A60003C4E366846F480463A4F3E603E46366805
:101A700006F48046009600BF00BF374E8F0856F828
:101A800027008E07370F0F26BE40B043334EB242B9
:101A900002D1002624E057E0314EB24201D10126A6
:101AA0001EE0304EB24201D1022619E02E4EB24263
:101AB00001D1032614E02D4EB24201D104260FE0DD
:101AC0002B4EB24201D105260AE02A4EB24201D184
:101AD000062605E0284EB24201D1072600E008267E
:101AE0008F073F0FBE4030431B4E8F0846F827003C
:101AF000224E3068A0435E6806F4801606B120438B
:101B00001E4E3060361D3068A0435E6806F4001635
:101B100006B12043194E361D3060184E361F30680E
:101B2000A0435E6806F4003606B12043134E361F0C
:101B30003060361F3068A0435E6806F4803606B118
:101B400020430E4E083E3060491C1029FFF426AF9A
:101B5000F8BD00004438024008380140000002404F
:101B60000004024000080240000C02400010024045
:101B70000014024000180240001C0240083C0140D2
:101B8000024613690B400BB1012000E000207047B2
:101B90000AB1816101E00B0483617047014800686C
:101BA000704700003C0000200348006803490978A2
:101BB00008440149086070473C00002044000020B0
:101BC00010B50D48006840F400700B4908600846E5
:101BD000006840F4806008600846006840F4807047
:101BE0000860032000F0ACF80F2000F007F800F0C8
:101BF0002BF8002010BD0000003C024070B50446E8
:101C00000E4800784FF47A71B1FBF0F00C49096886
:101C1000B1FBF0F5284601F035FB08B1012070BD9D
:101C2000102C07D200222146501E00F04BF8054828
:101C3000046001E00120F2E70020F0E7440000200A
:101C4000480000204000002008B500BF00200090A0
:101C50001148006840F480400F4908600846006859
:101C600000F48040009000BF00BF00BF0020009043
:101C7000081F006840F08050091F0860084600688F
:101C800000F08050009000BF00BF00220F21901E86
:101C900000F018F808BD000044380240014608462C
:101CA00000280DDB00BF00BF00F01F0301229A4097
:101CB00043099B0003F1E023C3F8002100BF00BFEC
:101CC00000BF70472DE9F05F80460D46164600279D
:101CD00004F0A2FE074639462A46334601F00700C3
:101CE000C0F1070ABAF1040F02D94FF0040A01E06B
:101CF000C0F1070AD14600F1040ABAF1070F02D277
:101D00004FF0000A01E0A0F1030AD4464FF0010AA7
:101D10000AFA09FAAAF1010A0AEA020A0AFA0CFA0C
:101D20004FF0010B0BFA0CFBABF1010B0BEA030BB1
:101D30004AEA0B042146404604F076FEBDE8F09FD7
:101D400000BF00F00702064B19684FF6FF03194069
:101D5000044B0B4343EA0221014B196000BF70475B
:101D60000CED00E00000FA05F8B504460025002659
:101D7000207800F0010020B9207800F00400042849
:101D80002FD100205B498866FFF708FF054606E073
:101D9000FFF704FF401B022801D90320F8BD564875
:101DA0000068C0F3C0600028F2D160688101207A29
:101DB00041EA007050498431086001204D4988662D
:101DC000FFF7ECFE054606E0FFF7E8FE401B0228A1
:101DD00001D90320E2E748480068C0F3C06000284A
:101DE000F2D0207800F0020002287DD100BF002050
:101DF000009041484030006840F080503E494031FA
:101E000008600846006800F08050009000BF00BFE6
:101E10003A48006840F4807038490860FFF7BEFE19
:101E2000054606E0FFF7BAFE401B022801D9032051
:101E3000B4E73248006800F480700028F2D02E48E1
:101E40007030006800F440764EB3A08900F4407012
:101E5000B04224D028487030006820F44076012039
:101E60002749086000200860234870300660006839
:101E700000F0010098B1FFF791FE054608E0FFF77A
:101E80008DFE401B41F28831884201D9032085E74D
:101E9000194870300068C0F340000028EFD000BF40
:101EA000A08900F44070B0F5407F0CD11248083092
:101EB000006820F4F810134AE168114008430E4905
:101EC0000831086007E00C480830006820F4F8107A
:101ED000094908310860084870300068A189C1F3D9
:101EE0000B010843044900E002E07031086000BFC4
:101EF000002053E7000047420038024000700040D5
:101F0000400E4742FFFCFF0F70B504460D460CB96A
:101F1000012070BD5848006800F00700A84209D2AF
:101F200055490D700846006800F00700A84201D02E
:101F30000120EEE7207800F0020002281DD1207871
:101F400000F00400042805D14C48006840F4E0503B
:101F50004A490860207800F00800082805D1474861
:101F6000006840F46040454908604448006820F03B
:101F7000F000A168084341490860207800F00100A2
:101F8000A8B36068012807D13C4808380068C0F34E
:101F90004040B8B90120BCE76068022802D0606800
:101FA000032807D1354808380068C0F3406048B9B5
:101FB0000120AEE7314808380068C0F3400008B996
:101FC0000120A6E72D48006820F00300616808435F
:101FD0002A490860FFF7E2FD064609E0FFF7DEFD4B
:101FE000801B41F28831884202D9032091E707E043
:101FF0002248006800F00C006168B0EB810FEDD161
:102000001D48006800F00700A84209D91A490D7060
:102010000846006800F00700A84201D0012078E7D8
:10202000207800F00400042807D11448006820F448
:10203000E050E168084311490860207800F008008A
:10204000082808D10D48006820F46040216940EA62
:10205000C1000A49086000F03FF808490968C1F367
:102060000311074A515CC8400649086006480068E9
:10207000FFF7C4FD00204CE7003C02400838024056
:10208000ECD600084800002040000020014800680D
:10209000704700004800002000B5FFF7F7FF044933
:1020A0000968C1F38221034A515CC84000BD0000A9
:1020B00008380240FCD6000800B5FFF7E7FF0449E6
:1020C0000968C1F34231034A515CC84000BD0000B9
:1020D00008380240FCD600082DE9F047002400250E
:1020E0000026A1462548006800F00C0020B1042815
:1020F00005D008283AD105E0DFF8849039E0DFF810
:10210000849036E01D48001F006800F03F041B4823
:10211000001F006800F4800078B11A481749091FB1
:102120000968C1F38811A0FB017001462246002313
:102130003846FEF7A7F805460EE011480F49091F7B
:102140000968C1F38811A0FB0170014622460023F3
:102150003846FEF797F805460848001F0068C0F3A8
:102160000140401C4600B5FBF6F902E0DFF8109094
:1021700000BF00BF4846BDE8F087000008380240B5
:102180000024F40000127A00F8B504460CB90120CE
:10219000F8BD207800F00100002874D0F9480068EC
:1021A00000F00C0004280DD0F648006800F00C0088
:1021B000082813D1F348001F006800F48000B0F530
:1021C000800F0BD1EF4808380068C0F3404000286A
:1021D00059D06068002856D10120D9E700BF606857
:1021E000B0F5803F08D1E7480838006840F48030F7
:1021F000E449083908601EE06068B0F5A02F0DD1F1
:10220000E0480838006840F48020DE49083908605A
:102210000846006840F4803008600CE0D94808386F
:10222000006820F48030D749083908600846006803
:1022300020F48020086000BF606890B1FFF7AEFC1A
:10224000054606E0FFF7AAFC401B642801D90320DD
:102250009EE7CC4808380068C0F340400028F1D021
:1022600011E0FFF79BFC054606E0FFF797FC401BDB
:10227000642801D903208BE7C24808380068C0F3FE
:1022800040400028F1D1207800F0020002285FD100
:10229000BC48006800F00C0058B1BA48006800F073
:1022A0000C0008281CD1B748001F006800F480000B
:1022B000B0B9B44808380068C0F3400020B1E06805
:1022C000012801D0012063E7AE480838006820F0FB
:1022D000F800216940EAC100AA490839086037E0DE
:1022E000E06800B30120A8490860FFF757FC0546E5
:1022F00006E0FFF753FC401B022801D9032047E703
:10230000A04808380068C0F340000028F1D09D487C
:102310000838006820F0F800216940EAC1009949B6
:102320000839086014E0002097490860FFF736FC80
:10233000054606E0FFF732FC401B022801D90320C6
:1023400026E7904808380068C0F340000028F1D123
:10235000207800F0080008282CD16069A8B101207D
:102360008A490860FFF71AFC054606E0FFF716FCED
:10237000401B022801D903200AE782486C3000681C
:10238000C0F340000028F1D014E000207F4908602D
:10239000FFF704FC054606E0FFF700FC401B02289F
:1023A00001D90320F4E677486C300068C0F34000A0
:1023B0000028F1D1207800F00400042870D1002713
:1023C00070483830006800F0805090B900BF00209D
:1023D00000906C483830006840F0805069493831CE
:1023E00008600846006800F08050009000BF00BF01
:1023F00001276748006800F48070B0B9644800683D
:1024000040F4807062490860FFF7C8FB054606E0AB
:10241000FFF7C4FB401B022801D90320B8E65C4843
:10242000006800F480700028F2D000BFA068012886
:1024300008D154486830006840F0010051496831C3
:1024400008601DE0A06805280DD14E48683000687E
:1024500040F004004B49683108600846006840F0CD
:10246000010008600CE047486830006820F0010077
:102470004449683108600846006820F0040008609C
:1024800000BFA068A8B1FFF789FB054609E0FFF788
:1024900085FB401B41F28831884202D9032077E650
:1024A00026E0384868300068C0F340000028EED0CD
:1024B00013E0FFF773FB054608E0FFF76FFB401BD7
:1024C00041F28831884201D9032061E62D48683005
:1024D0000068C0F340000028EFD1012F07D1294840
:1024E0003830006820F0805026493831086000BF3D
:1024F000A069002845D02348006800F00C00082897
:102500005DD0A069022845D100201F490866FFF769
:1025100045FB054606E0FFF741FB401B022801D9B9
:10252000032035E6174808380068C0F340600028EB
:10253000F1D1D4E907010843616A40EA811101221F
:10254000A06AC2EB500041EA00412C20005D41EA44
:1025500000600C49091F086001200B490866FFF75D
:102560001DFB054606E0FFF719FB401B022801D9B9
:1025700003200DE6034808380068C0F340600028D7
:10258000F1D049E00838024000004742800E47423F
:1025900000700040002021490866FFF7FFFA054659
:1025A00006E0FFF7FBFA401B022801D90320EFE504
:1025B0001B480068C0F340600028F2D12CE0A069FD
:1025C000012800D1E4E51648001D0668A06901282D
:1025D00020D006F48001E06981421BD106F03F0162
:1025E000206A814216D147F6C0703040616AB0EB74
:1025F000811F0FD106F440310122A06AC2EB5000C6
:10260000B1EB004F06D106F070612C20005DB1EBFC
:10261000006F01D00120BBE50020B9E50000474272
:102620000038024070B505460B461646002428685F
:1026300040680E4900EA0104200CD870C4F304205D
:10264000587004F03F009870C4F3423018705EB9BF
:10265000D87802F099FAD870587802F095FA587044
:10266000987802F091FA9870002070BD3FFFFF004B
:1026700070B504460B46164600252068806A5860EF
:1026800020680069C0F30E009860206800680E4959
:1026900000EA0105C5F305401870C5F3062058701F
:1026A00005F07F009870A80DD8705EB9187802F018
:1026B0006BFA1870587802F067FA5870987802F040
:1026C00063FA9870002070BD7F7F7F0070B504466C
:1026D0000CB9012070BD607F20B900202077204612
:1026E00000F04EF8022060772068C068C0F3001048
:1026F00000283CD100BFCA202168486253202168CD
:10270000486200BF204602F04AFA0546EDB920684B
:1027100080681A4908402168886021696068084318
:1027200061690843216889680843216888602168D5
:10273000E068086120680169208941EA0040216859
:102740000861204602F050FA05465DB92068006C29
:1027500020F48020216808642068006CA169084387
:102760002168086400BFFF202168486200E000255E
:102770000DB9012060772846ACE70000BFFF8FFF4E
:102780001FB5044600200090019002900390094973
:10279000206888420CD102200090C0010390684656
:1027A000FFF7E2FA08B1FEF753FB01200249086087
:1027B0001FBD0000002800403C0E474270B5044693
:1027C00000250B482168C860FFF7E8F9054607E0D7
:1027D000FFF7E4F9401BB0F57A7F01D9032070BD03
:1027E0002068C06800F020000028F1D00020F6E743
:1027F0005F7F010010B5FEF76BF910BDF0B589B031
:1028000004460E460027032084F83400606C032839
:1028100020D0B6F5805F04D1A06B40F08050A0635B
:102820001CE0B6F5006F07D1204603F0EEF8054630
:10283000A06B2843A06311E03EB9204603F0B1F835
:102840000546A06B2843A06308E0A06B40F0006041
:10285000A06303E0A06B40F08050A063A06B38B190
:10286000174821688863012084F83400012713E0A9
:1028700060680390A0680490E0680590069660691F
:102880000790A069089006A807C88DE8070020688F
:1028900003A90EC902F0ECF94FF40071206802F0B0
:1028A0005FFA054635B1064821688863A06B284366
:1028B000A0630127012084F83400384609B0F0BD38
:1028C000FF0540007047000010B50246506E800FB3
:1028D0000870506EC0F383604870506EC0F30160A2
:1028E0008870506E000CC870B2F86400000A08715D
:1028F00092F864004871906E000DC880906EC0F32D
:10290000034008726820805AC0F3C03048726820C3
:10291000805AC0F3803088726820805AC0F34030FB
:10292000C8726820805AC0F30030087300204873D2
:10293000506C002836D16820805A8005030DD06E77
:1029400043EA90700861D06EC0F3C2600875D06E23
:10295000C0F302604875D06EC0F342508875D06EE7
:10296000C0F38240C875D06EC0F3C23008760869E3
:10297000401C50650B7E506D03F007039B1C012427
:102980009C4060435065087A00F00F030120984096
:102990009065D2E915035B0A5843D0654FF4007384
:1029A000136621E0506C012813D16820805C8006FA
:1029B000830AD06E43EA104008610869401C830214
:1029C0005365536DD3654FF400739365936D136630
:1029D0000AE02E4813689863906B40F08050906333
:1029E000012082F8340010BD6C20805AC0F3803082
:1029F00001F8190F6C20805AC0F3C61048706C2083
:102A0000805C00F07F008870106FC00FC870106F7E
:102A1000C0F341700871106FC0F382604871106F8D
:102A2000C0F383508871106FC0F34050C87100200C
:102A30000872106FC0F3004048727020805AC0F3D3
:102A4000C03088727020805AC0F38030C872702005
:102A5000805AC0F3403008737020805AC0F30030B1
:102A600048737020805AC0F3812088737020805A88
:102A7000C0F30120C8737020805CC0F34600087466
:102A80000120487419390020ADE70000FF0540001F
:102A90000246506C0860906C4860D06C8860106D85
:102AA000C860506D0861906D4861D06D8861106E8E
:102AB000C86100207047F8B50446002000906946C0
:102AC000204602F056FF054615B1A06B2843A063CF
:102AD0000098C0F343263046F8BD000070B50446A8
:102AE000256B2068406BC0F3C03030B105F00800A2
:102AF00018B1204602F018FFF8E02068406BC0F3E0
:102B00000020002862D04FF480702168886320681C
:102B1000C06B4CF23A3188432168C8632068C06AB0
:102B200020F001002168C86205F0080038B305F004
:102B3000020010B905F0200050B1206802F054FAEC
:102B400006462EB1A06B3043A0632046FFF7BAFEC5
:102B500040F23A5021688863012084F83400002054
:102B6000206305F0010010B905F0020018B12046FD
:102B700000F0A2FABAE0204600F0A2FAB6E005F0B2
:102B800080000028B8D005F0200050B1206802F085
:102B90002BFA06462EB1A06B3043A0632046FFF708
:102BA00091FE05F001000028A6D105F002000028E2
:102BB000A2D12068C06A20F008002168C862012004
:102BC00084F83400204600F07BFA8FE02068406BE8
:102BD000C0F3803030B105F0080018B1204602F093
:102BE00048FF83E02068406B40F23A21084008B17A
:102BF000012000E00020002878D02068406BC0F35E
:102C0000400018B1A06B40F00200A0632068406B48
:102C1000C0F3C00018B1A06B40F00800A0632068AA
:102C2000406BC0F3401018B1A06B40F02000A063CF
:102C30002068406BC0F3001018B1A06B40F010008A
:102C4000A0632068406BC0F3402018B1A06B40F037
:102C50000800A06340F23A70216888632068C06B66
:102C600040F23A3188432168C863206802F0BCF919
:102C7000A16B0843A06305F0080040B1012084F86F
:102C80003400002020632046FFF71CFE2EE005F0F4
:102C9000800000B305F0100010B905F0200050B11D
:102CA0001348E16B0865E06BFEF7C0FB98B1E06B81
:102CB00002F089FC1AE005F0010010B905F00200ED
:102CC00050B10C48216C0865206CFEF7AFFB10B1C9
:102CD000206C02F04BFC09E00020A063012084F886
:102CE0003400002020632046FFF784FD70BD000003
:102CF000C75500086D55000810B504460CB90120F1
:102D000010BD94F8340020B900202077204600F050
:102D100065F8032084F83400204600F00BF808B171
:102D20000120EDE70020A0632063012084F8340037
:102D30000020E5E730B589B00446002003900490F8
:102D40000590069007907620089006A807C88DE8A1
:102D50000700206803A90EC901F08AFF00201D4961
:102D60000860206801F09EFF01201A49A039C1F8CF
:102D7000A0000220FEF752FD204602F06FFD05463E
:102D800045B1012084F83400A06B2843A0630120E2
:102D900009B030BD204602F0E0FC05463DB10120FF
:102DA00084F83400A06B2843A0630120F0E74FF4BF
:102DB0000071206801F0D4FF05464DB10648216836
:102DC0008863A06B2843A063012084F83400DFE708
:102DD0000020DDE7A0802542FF05400010B586B049
:102DE0000446142101A8FDF797FA58492068884243
:102DF0007ED100BF002000905548006840F400607C
:102E0000534908600846006800F40060009000BF65
:102E100000BF00BF002000904D481438006840F00B
:102E200004004B49143908600846006800F00400AB
:102E3000009000BF00BF00BF00200090084600685F
:102E400040F0080008600846006800F008000090A4
:102E500000BF00BF4FF4F850019002200290012003
:102E60000390032004900C20059001A93948FEF737
:102E70008DFD042001900220029001200390032088
:102E800004900C20059001A93348FEF77FFD3348DC
:102E9000334908604FF0006048600021304881608D
:102EA000C1604FF4806101618900416189008161E5
:102EB0002021C16109030162042141620321816271
:102EC0004FF40001C16289100163FEF7E7FB08B10E
:102ED000FDF7BEFF00BF22482064846300BF1F4887
:102EE0004830204908604FF000604860402100E011
:102EF00029E01C4881600021C1604FF480610161BC
:102F000089004161890081612021C1610903016259
:102F100004214162032181624FF40001C1628910E2
:102F20000163FEF7BBFB08B1FDF792FF00BF0D4840
:102F3000E063846300BF002205213120FEF7C2FE5A
:102F40003120FEF7ABFE06B010BD0000002C0140A2
:102F50004438024000080240000C0240586402401D
:102F600040030020A00300202DE9F04387B0044671
:102F70000F4691461D46C8463FB9A06B40F0006021
:102F8000A063012007B0BDE8F08394F83400012865
:102F90007ED10020A06308EB0501E06D814205D9D8
:102FA000A06B40F00070A0630120EBE7032084F8E1
:102FB000340000202168C8622068C06B40F22A31CA
:102FC00008432168C8633848216CC8633748216CBE
:102FD000C8640020216C08650021206C8160206C91
:102FE0000068006820F0C000216C89680843216CEB
:102FF000096808606A029308226802F180013A4673
:10300000206CFEF7C1FB80B12068C06B20F4957086
:103010002168C863264821688863A06B40F080401F
:10302000A063012084F83400ACE701202149086046
:10303000606C012801D04FEA48284FF0FF30019022
:1030400068020290902003900220049000200590D6
:103050000120069001A9206801F0DDFD012D07D9AE
:10306000822020634146206801F0E2FE064606E029
:10307000812020634146206801F0F6FE064676B1C5
:103080000B4821688863A06B3043A063012000E0F7
:1030900007E084F8340000202063012072E700205C
:1030A00070E702206EE7000025550008B1540008C3
:1030B000FF0540008C85254210B5FDF74BFD10BD86
:1030C00010B5FDF75DFD10BD2DE9F04387B0044656
:1030D000884691461D464F46B8F1000F07D1A06BB8
:1030E00040F00060A063012007B0BDE8F08394F8D1
:1030F0003400012874D10020A0637919E06D814269
:1031000005D9A06B40F00070A0630120ECE703201C
:1031100084F8340000202168C8622068C06B40F247
:103120001A2108432168C8633848E16BC8633848EE
:10313000E16BC8640020E16B0865606C012800D079
:103140007F02012D07D9A02020633946206801F0B5
:1031500069FF064606E0902020633946206801F0AA
:103160007DFF064666B12B4821688863A06B30431B
:10317000A063012084F83400002020630120B3E71D
:103180000120254908604021E06B8160E06B006808
:10319000006820F0C000E16B89680843E16B0968B2
:1031A000086069028B08216801F180024146E06BEA
:1031B000FEF7EAFAA8B12068C06B40F21A218843F2
:1031C0002168C863134821688863A06B40F0804081
:1031D000A063012084F8340000202063012083E7ED
:1031E00011E04FF0FF3001906802029090200390B0
:1031F0000020049005900120069001A9206801F0AC
:103200000AFD002070E702206EE70000B5550008B7
:10321000B1540008FF0540008C85254270B5044676
:103220000E4615460CB9012070BD94F8490028B926
:10323000002084F84800204600F01FF804F108013F
:103240002068FDF74FFE3146A2682068FDF786FE34
:103250002946236BD4E90102FDF722FEA16820680C
:1032600050F8210040F00100A268216841F82200D6
:10327000012084F849000020D6E710B50446FEF787
:10328000E1FA10BD70B504462546681EB0F1807F96
:1032900001D301200FE0681E4FF0E02148610F21AB
:1032A0004FF0FF3003F0C0FB00204FF0E0218861B9
:1032B00007200861002070BD7047704730B5024696
:1032C0000B4600BF92F83C00012801D1022030BD1E
:1032D000012082F83C0000BF022082F83D00106807
:1032E00044681068816824F070041868044310680A
:1032F0004460184D1068A8421BD01068B0F1804F90
:1033000017D0154D1068A84213D0144D1068A8426C
:103310000FD0134D1068A8420BD0124D1068A84270
:1033200007D0114D1068A84203D0104D1068A84274
:1033300005D121F0800158680143106881600120A7
:1033400082F83D0000BF002082F83C0000BF00BFB3
:10335000BDE70000000001400004004000080040FC
:10336000000C0040000401400040014000180040F3
:1033700010B504460CB9012010BD94F83D0028B9E1
:10338000002084F83C00204600F026F8022084F853
:103390003D00211D206802F003FF012084F8460053
:1033A00000BF84F83E0001213F2001554020015517
:1033B0004120015500BF00BF012084F84200432096
:1033C0000155442001554520015500BF012084F8D6
:1033D0003D000020D0E7000038B504462068B0F179
:1033E000804F18D100BF002000901548006840F0C1
:1033F0000100134908600846006800F001000090D1
:1034000000BF00BF002205211C20FEF75BFC1C2032
:10341000FEF744FC13E00B49206888420FD100BF3F
:10342000002000900648006840F00200044908604F
:103430000846006800F00200009000BF00BF38BDE1
:103440004038024000040040014691F83D00012848
:1034500001D001207047022081F83D001A4B086816
:1034600098421BD00868B0F1804F17D0174B0868FE
:10347000984213D0164B086898420FD0154B086835
:1034800098420BD0144B0868984207D0134B086839
:10349000984203D0124B086898420CD108688068A3
:1034A00000F00702062A0CD00868006840F001000E
:1034B0000B68186005E00868006840F001000B68C0
:1034C00018600020C6E70000000001400004004032
:1034D00000080040000C0040000401400040014092
:1034E00000180040014691F83D00012801D001205C
:1034F0007047022081F83D000868C06840F0010074
:103500000B68D8601A4B086898421BD00868B0F165
:10351000804F17D0174B0868984213D0164B086895
:1035200098420FD0154B086898420BD0144B08688E
:10353000984207D0134B0868984203D0124B086892
:1035400098420CD10868806800F00702062A0CD067
:103550000868006840F001000B68186005E0086822
:10356000006840F001000B6818600020C0E7000010
:10357000000001400004004000080040000C004032
:10358000000401400040014000180040014600BF17
:103590000868006A41F21112104050B90868006AC8
:1035A0009210104028B90868006820F001000A68ED
:1035B000106000BF012081F83D00002070472DE918
:1035C000F04104460D46002700BF94F83C00012856
:1035D00002D10220BDE8F081012084F83C0000BF48
:1035E000022084F83D002068866826F0770626F4DD
:1035F0007F46206886602868502833D00CDC20285D
:1036000050D004DC00284BD0102851D149E030289C
:1036100049D040284CD139E060282DD0702807D0FF
:10362000B0F5805F03D0B0F5005F41D10DE041E01F
:10363000D5E902136A68206802F033FE20688668C4
:1036400046F077062068866034E0D5E902136A68A0
:10365000206802F026FE2068806840F480402168DF
:10366000886027E0EA686968206802F00BFF502153
:10367000206802F021FE1DE0EA686968206802F017
:1036800014FF6021206802F017FE13E0EA68696801
:10369000206802F0F7FE4021206802F00DFE09E0EC
:1036A00000BF00BF00BF2968206802F005FE01E0EE
:1036B000012700BF00BF012084F83D0000BF0020AB
:1036C00084F83C0000BF384684E7704770B5044674
:1036D0002068C5682068066906F00200022819D132
:1036E00005F00200022815D1401F21680861012061
:1036F00020772068806900F0030018B12046FFF7AA
:10370000E4FF05E0204600F0C9F8204600F096F9F5
:103710000020207706F00400042819D105F00400E9
:10372000042815D1C0432168086102202077206851
:10373000806900F4407018B12046FFF7C6FF05E02D
:10374000204600F0ABF8204600F078F90020207702
:1037500006F00800082819D105F00800082815D13E
:10376000C04321680861042020772068C06900F008
:10377000030018B12046FFF7A8FF05E0204600F03F
:103780008DF8204600F05AF90020207706F010004E
:10379000102819D105F01000102815D1C043216858
:1037A0000861082020772068C06900F4407018B1D3
:1037B0002046FFF78AFF05E0204600F06FF820461C
:1037C00000F03CF90020207706F0010048B105F038
:1037D000010030B16FF0010021680861204600F05F
:1037E000B5F906F08000802809D105F08000802816
:1037F00005D1C043216808612046FFF75DFD06F052
:103800004000402809D105F04000402805D1C043C0
:1038100021680861204600F09AF906F0200020286F
:1038200009D105F02000202805D1C0432168086196
:103830002046FFF742FD70BD10B586B00446142146
:1038400001A8FCF769FD1249206888421ED100BF1B
:10385000002000900F48006840F002000D49086009
:103860000846006800F00200009000BF00BF4FF45F
:10387000004001900220029000200390022004905A
:103880000920059001A90448FEF780F806B010BD94
:1038900000180040303802400004024070472DE913
:1038A000F04104460D461646002700BF94F83C0040
:1038B000012802D10220BDE8F081012084F83C00FB
:1038C00000BF36B1042E1BD0082E31D00C2E5ED195
:1038D00045E02946206802F0F9FC2068806940F044
:1038E0000800216888612068806920F00400216850
:1038F000886120688069296908432168886148E0F7
:103900002946206802F01AFD2068806940F40060B2
:10391000216888612068806920F48060216888615E
:1039200020688069296940EA01202168886130E0C7
:103930002946206802F040FD2068C06940F0080078
:103940002168C8612068C06920F004002168C8614E
:103950002068C069296908432168C86119E02946BF
:10396000206802F065FD2068C06940F400602168AD
:10397000C8612068C06920F480602168C86120683F
:10398000C069296940EA01202168C86101E0012776
:1039900000BF00BF00BF002084F83C0000BF3846D5
:1039A00089E710B504460CB9012010BD94F83D001C
:1039B00028B9002084F83C00204600F025F80220B9
:1039C00084F83D00211D206802F0EAFB012084F804
:1039D000460000BF84F83E0001213F2001554020F1
:1039E00001554120015500BF00BF012084F842006D
:1039F00043200155442001554520015500BF0120B9
:103A000084F83D000020D0E708B50A4A01689142D9
:103A10000FD100BF002100910749096841F0400122
:103A2000054A11601146096801F04001009100BF8C
:103A300000BF08BD00180040403802407047000039
:103A400070B504460D4615B994F83E000BE0042D00
:103A500002D13F20005D06E0082D02D14020005D2C
:103A600001E04120005D012801D0012070BD1DB999
:103A7000022084F83E000EE0042D03D102213F20F5
:103A8000015508E0082D03D102214020015502E034
:103A900002214120015501222946206802F0F0FB55
:103AA00023492068884203D022492068884201D1F6
:103AB000012000E0002028B12068406C40F4004064
:103AC000216848641A49206888421BD02068B0F1F8
:103AD000804F17D018492068884213D017492068B2
:103AE00088420FD01649206888420BD011492068BF
:103AF000884207D013492068884203D012492068C1
:103B000088420CD12068806800F00706062E0CD091
:103B10002068006840F001002168086005E0206826
:103B2000006840F001002168086000209EE7000066
:103B30000000014000040140000400400008004073
:103B4000000C0040004001400018004070477047E2
:103B500010B504460CB9012010BDA06900B100E009
:103B600000BF94F8410028B9002084F840002046A6
:103B700000F02AF8242084F841002068C06820F46E
:103B800000502168C860204602F02EFD20680069C0
:103B900020F49040216808612068406920F02A00E4
:103BA000216848612068C06840F400502168C860FE
:103BB00000206064202084F8410084F84200002046
:103BC000606300BFC8E7000010B586B0044614214A
:103BD00001A8FCF7A1FB1B492068884230D100BF37
:103BE000002000901848006840F010001649086056
:103BF0000846006800F01000009000BF00BF00BF42
:103C00000020009010481438006840F001000E4970
:103C1000143908600846006800F00100009000BFF9
:103C200000BF4FF4C060019002200290002003907A
:103C3000032004900720059001A90448FDF7A6FE83
:103C400006B010BD001001404438024000000240A0
:103C50002DE9F84F04460E46174699464FF0000AE4
:103C600094F84100202850D106B117B90120BDE8D1
:103C7000F88F00206064212084F84100FDF78EFF5A
:103C80008246A784E784A068B0F5805F04D12069EC
:103C900010B90025B04602E035464FF000081EE09E
:103CA0005346002280212046CDF8009002F0B2FD5C
:103CB00020B1202084F841000320D8E745B9B8F8A6
:103CC0000000C0F308002168486008F1020803E022
:103CD0002878216848606D1CE08C401EE084E08CF0
:103CE0000028DDD15346002240212046CDF8009027
:103CF00002F090FD20B1202084F841000320B6E7B7
:103D0000202084F841000020B1E70220AFE700BF87
:103D1000FEE7000070B505460D4800880C4949884B
:103D200000FB01F60A484088401E83B2084800881C
:103D3000401E82B20021084600F098F8002403E0FB
:103D4000284606F0A3FD641CB442F9D370BD000000
:103D5000300500202DE9FF4F85B081468A460020BE
:103D60000390834600260798A0EB09040898A0EB6F
:103D70000A05CDF80890CDF804A0002C01DD01273C
:103D800005E00CB9002702E04FF0FF376442002D38
:103D900002DD4FF0010806E015B94FF0000802E01F
:103DA0004FF0FF386D42AC4201DD264600E02E4662
:103DB000002004901EE0019A91B2029A90B2129AE9
:103DC00000F01FF8039820440390AB440398B042DE
:103DD00005DD0398801B0390029838440290B34598
:103DE00004DDABEB060B0198404401900498401CA5
:103DF00080B20490711C04988842DCDB09B0BDE8F5
:103E0000F08F70B505460E4614463146284600F040
:103E100007F800F017F9204606F038FD70BD0000E5
:103E200070B504460D4610480088A04201DA0E48DD
:103E300004880D484088A84201DA0B4845880A49A1
:103E4000088906F033FD201206F020FDE0B206F0EE
:103E50001DFD0549488906F029FD281206F016FDCA
:103E6000E8B206F013FD70BD300500202DE9F041E9
:103E700004460D4616461F461149088906F016FDF0
:103E8000201206F003FDE0B206F000FD301206F04D
:103E9000FDFCF0B206F0FAFC0949488906F006FD7F
:103EA000281206F0F3FCE8B206F0F0FC381206F037
:103EB000EDFCF8B206F0EAFC00F0C4F8BDE8F081D1
:103EC000300500202DE9F05F0546894692461C46E4
:103ED0002E462046E21704EB5272D2102146E31719
:103EE00004EB5373DB10A4EBC3030BB1012300E01D
:103EF00000231A4462431FFA82FB00F0A3F8002754
:103F000093E04FF0000889E00C2C20D10AEB4A0026
:103F1000484901EBC000C05D012101FA08F10840E9
:103F200028B1494628460A9AFFF76BFF04E0494644
:103F300028460B9AFFF765FF681C85B2A81BA042B4
:103F400068D1354609F101001FFA80F96AE0102CAA
:103F50001ED1394800EB4A10C15D012000FA08F07B
:103F6000014029B1494628460A9AFFF74AFF04E072
:103F7000494628460B9AFFF744FF681C85B2A81BE8
:103F8000A04247D1354609F101001FFA80F949E006
:103F9000182C20D10AEBCA00284901EBC000C05DF3
:103FA000012101FA08F1084028B1494628460A9A39
:103FB000FFF727FF04E0494628460B9AFFF721FF49
:103FC000681C85B2A81BA04224D1354609F1010026
:103FD0001FFA80F926E01A4800EBCA10C15D0120E3
:103FE00000FA08F0014029B1494628460A9AFFF72D
:103FF00008FF04E0494628460B9AFFF702FF681CB9
:1040000085B2A81BA04205D1354609F101001FFA6F
:1040100080F907E008F1010000F0FF08B8F1080F8F
:10402000FFF672AF00BF781CC7B25F45FFF669AFFD
:10403000BDE8F09F841101082C1201080C1301083F
:10404000441701080248C0880249088070470000F0
:10405000300500207E00006C2DE9FC4107463979CF
:10406000F888012203F012FE804600BFCD26A8F199
:104070000100C0EBC00101EB0010012101EB400584
:10408000B8F1000F01D140F20F1529462BA002F024
:1040900085FC012449E00A2C0DDA002047F67C510A
:1040A000A3B2CDE90010B1B205F1080290B220220E
:1040B00006F0C2FB0AE0002047F67C51A3B2CDE92E
:1040C0000010B1B2A8B2202206F0B6FBF878A042E8
:1040D00024D106F1100291B205F1100290B21F2313
:1040E000162205F0DDF90A2C0DDA1F204FF6FF71BC
:1040F000A3B2CDE90010B1B205F1080290B22022BE
:1041000006F09AFB0AE01F204FF6FF71A3B2CDE93B
:104110000010B1B2A8B2202206F08EFB2D35B5F505
:10412000967F01DD01252436641C3879401E05493F
:10413000085CA042AFDABDE8FC810000783D256450
:104140000D0A0000C41F01082DED028B00BF642082
:1041500008F014FA20484068401C1F4948601420A9
:10416000FCF7F6FB044600EE104AB8EE400ADFED1D
:104170001B0A20EE208A1A4890ED000A38EE400A09
:10418000B0EEC00ADFED170AB4EEE00AF1EE10FA65
:10419000DDDB9FED150A28EE000ABCEEC00A10EE2A
:1041A000100AC5B2FF2D00DDFF25C5F1FF05322144
:1041B0000E48006808F020FF0128C8D10C480068AC
:1041C0008563074880ED008A00231A461946074890
:1041D000006808F0B7FCBAE79C0100203333533A7B
:1041E00000000020CDCC4C3ECA269B42200000207F
:1041F000900400201FB500200090019002900390D1
:104200001548164908604FF4803048600021134873
:1042100081600161017680F82010C16210498162DD
:104220000021C1600121C161002180F8301001210D
:104230004161FCF779FF08B1FCF70AFE0520009008
:10424000012001900020029069460448FCF7A2FE7C
:1042500008B1FCF7FDFD1FBD00220140B4010020A4
:104260000100000F08B500BF002000900E48006854
:1042700040F480000C4908600846006800F48000A3
:10428000009000BF00BF002205213B20FDF71AFD72
:104290003B20FDF703FD002205214520FDF712FD1F
:1042A0004520FDF7FBFC08BD3038024010B503493E
:1042B0000348FCF7D0FD0349087010BD89010020B8
:1042C000D01F0108880100202DE9F043ADF6440D10
:1042D0006FA240210DF6040002F070FB0DF6040001
:1042E000FCF731F81FFA80F94FF0FF334A460DF61C
:1042F00004016C48FFF7ACFC6B48FFF7F3F80421AE
:104300006A48FFF79DFB7D2068490968886305F0CE
:1043100079F867490868804703F096FB9FED650AC6
:10432000654880ED000A9FED650A80ED010A4FF4B3
:10433000A07061490881084603F056FC4FF47A707A
:10434000FDF76CFA5E48007888B901205C49087076
:10435000C20201A95BA003F0B1FA20B101A95CA0DF
:1043600002F01CFB02E062A002F018FB00BF01207B
:1043700008F074FB6149086061480023012261492B
:10438000009061A009F02EF96149086008460068B4
:1043900080B108F075FF81460A2000234A460121BA
:1043A00000905B48006809F063F9012802D159A028
:1043B00002F0F4FA00220121052008F05BFB5F49BE
:1043C00008605F48052100234FF48072CDE900109A
:1043D0005CA15F4808F012FF04461CB95DA002F022
:1043E000DDFA02E064A002F0D9FA6C48042100234F
:1043F0008A01CDE900106AA16B4808F0FFFE05466E
:104400001DB96AA002F0CAFA02E06FA002F0C6FA73
:104410000020012103464A02CDE9001071A1744831
:1044200008F0ECFE06461EB972A002F0B7FA02E0F0
:1044300079A002F0B3FA8148022100234A02CDE9B3
:1044400000107FA1804808F0D9FE07461FB97FA061
:1044500002F0A4FA02E085A002F0A0FA8B48012144
:1044600000230A02CDE9001089A18C4808F0C6FE9D
:104470008046B8F1000F03D189A002F08FFA02E064
:104480008FA002F08BFA0DF6440DBDE8F08300001A
:1044900052544320496E697469616C697A65640D90
:1044A0000A000000D804002000040020900400202E
:1044B000B40000206666CA41A801002000007242D4
:1044C0002C000020323032362D30372D30310000B4
:1044D0000D0A3D3D3D20E69FA5E8AFA2E7BB93E670
:1044E0009E9C203D3D3D0D0A25730D0A00000000F5
:1044F000E697A0E695B0E68DAE0D0A0020000020FC
:1045000025B9000840771B0073746F7261676500FE
:104510002400002053746F72616765206C617465BC
:104520006E6379207374617274656420283330205F
:104530006D696E75746573290D0A000028000020EE
:1045400014000020746F7563682D544654000000F9
:10455000D564000843726561746520746F75636883
:104560002D544654207461736B2066616C696564D8
:1045700021200D0A000000004372656174652074FB
:104580006F7563682D544654207461736B20737586
:104590006363657373210D0A000000000C000020A6
:1045A00050574D2D44414300494100084372656115
:1045B00074652070776D207461736B206661696C1F
:1045C0006564210D0A000000437265617465207006
:1045D000776D207461736B207375636365737321EA
:1045E0000D0A000053656E736F72446174610000C0
:1045F000756000084372656174652053656E736F62
:104600007244617461207461736B206661696C65CA
:1046100064210D0A00000000437265617465205337
:10462000656E736F7244617461207461736B207383
:10463000756363657373210D0A000000100000208C
:1046400073637265656E0000F15C0008437265611A
:1046500074652073637265656E207461736B206688
:10466000616C696564210D0A000000004372656198
:1046700074652073637265656E207461736B20735B
:10468000756363657373210D0A0000001800002034
:104690007774616368646F6700000000A5680008B4
:1046A000437265617465207761746368646F672025
:1046B0007461736B206661696C6564210D0A00008A
:1046C000437265617465207761746368646F672005
:1046D0007461736B2073756363657373210D0A00D6
:1046E00000B58FB01C2108A8FBF716FE1C2101A8FD
:1046F000FBF712FE4FF02040394908603948486006
:104700000620886000213648C160016110214161A6
:1047100000218161C161016241624FF48051816277
:104720000021C1624FF48041016300214163816334
:1047300041640F2008900990FF200A900F200B90F1
:1047400010200C9011200D9000200E90022001905E
:104750000F200290FF20039002200490102005906B
:10476000112006900020079001AA08A91C48FEF716
:1047700055FD08B1FCF76CFB4FF020401A4908606A
:10478000184848600420886000211748C160016112
:104790001021416100218161C161016241624FF4D8
:1047A000805181620021C162016341638163416480
:1047B000002008900F20099008200A9000200B90FC
:1047C00010200C9011200D9000200E90002208A9BE
:1047D0000548FEF723FD08B1FCF73AFB0FB000BD1A
:1047E000FC010020040100A04C02002000B587B0AD
:1047F000142102A8FBF790FD00BF0020019069483A
:10480000006840F00400674908600846006800F04E
:104810000400019000BF00BF00BF002001900846C7
:10482000006840F0200008600846006800F02000A2
:10483000019000BF00BF00BF002001900846006843
:1048400040F0800008600846006800F08000019099
:1048500000BF00BF00BF002001900846006840F084
:10486000020008600846006800F00200019000BFE6
:1048700000BF00BF002001900846006840F04000E3
:1048800008600846006800F04000019000BF00BFCB
:1048900000BF002001900846006840F0100008604A
:1048A0000846006800F01000019000BF00BF00BF84
:1048B000002001900846006840F0080008600846A3
:1048C000006800F00800019000BF00BF00BF00209A
:1048D00001900846006840F0010008600846006842
:1048E00000F00100019000BF00BF00224FF4005112
:1048F0002D48FDF74DF900224FF470612B48FDF76C
:1049000047F9002201212A48FDF742F900224FF41D
:1049100000712848FDF73CF94FF400500290012047
:10492000039004900020059002A91F48FDF72EF87F
:104930004FF4E06002900120039000200490059065
:1049400002A91A48FDF722F8012002900390049072
:104950000020059002A91648FDF718F806200290DD
:10496000002003900120049002A91148FDF70EF8E1
:104970004FF4006002900120039004900220059003
:1049800002A90A48FDF702F84FF4007002900120D6
:10499000039004900220059002A90648FCF7F6FF58
:1049A00007B000BD30380240000802400014024049
:1049B000000402400018024010B50A480A49086085
:1049C000002048607F2108488160FF21C1600021EC
:1049D000016141618161FDF779FE08B1FCF738FAA8
:1049E00010BD0000002800409C0200200648074936
:1049F000086000204860002104488160C1600161B6
:104A00004161042181617047002C0140BC020020FB
:104A100000B587B01C216846FBF77EFC124813499D
:104A2000086053204860002110488160FF21C16068
:104A3000002101618161FEF7B4FF08B1FCF708FABB
:104A400060200090002001900290049004226946AA
:104A50000648FEF724FF08B1FCF7FAF90348FEF711
:104A6000EBFE07B000BD00000018004090040020DD
:104A700000B587B000200390049005900690019047
:104A800002904FF080401449086053204860002194
:104A90001148816042F20F71C160002101618161A2
:104AA000FEF766FC08B1FCF7D3F94FF48050039091
:104AB00003A90948FEF783FD08B1FCF7C9F90020F6
:104AC0000190029001A90448FEF7F8FB08B1FCF739
:104AD000BFF907B000BD00000004002000B587B09A
:104AE00000200390049005900690019002901448D5
:104AF00014490860532048600021124881604FF635
:104B0000FF71C160002101618161FEF731FC08B1D4
:104B1000FCF79EF94FF48050039003A90948FEF773
:104B20004EFD08B1FCF794F900200190029001A914
:104B30000448FEF7C3FB08B1FCF78AF907B000BDD3
:104B4000000400404804002010B50B480B490860E1
:104B50004FF4E1304860002108488160C160016184
:104B60000C21416100218161C161FEF7F1FF08B1B3
:104B7000FCF76EF910BD000000100140D8040020C1
:104B800000BFFEE700BFFEE7014600BF080900EBDB
:104B90008000420001F00F001044C0B2704770B5B1
:104BA0000446002600252068C06800F04000C8B90F
:104BB0002068C06840F080002168C860FCF7EEFF04
:104BC000064608E0FCF7EAFF801BB0F57A7F02D9C1
:104BD0000420607701252068C06800F0400008B913
:104BE000012DEFD1284670BD70B504460025206820
:104BF000C06820F080002168C8602068806800F0EC
:104C0000200030B92046FDF7D9FD10B104206077AF
:104C10000125284670BD10B5024600230868506281
:104C200048689062D1E9020420430C6920434C6932
:104C300020430343D06A20F0F7001843D0620020DD
:104C400010BD01460869C0B270470146086800F00F
:104C500003007047024602F11400431818687047B9
:104C600010B50248FDF73AFF10BD0000BC0200205D
:104C70000FB410B504460021DDE903021043059A84
:104C80001043069A1043079A1043089A10430143B1
:104C9000606847F6FF62904308436060002010BCE4
:104CA0005DF814FB014603200860002070470146B0
:104CB000D1F88000704710B5024600230868906064
:104CC000D1E901042043CC6820430C69204303430D
:104CD000D0686FF30B001843D060002010BD02466F
:104CE0000868C2F880000020704770B585B005469E
:104CF0000C46009437200190402002900020039041
:104D00004FF48060049069462846FFF7D4FF41F2D3
:104D100088323721284600F0DDF90646304605B0D6
:104D200070BD000070B585B005460C460B482043A9
:104D300000902920019040200290002003904FF421
:104D40008060049069462846FFF7B5FF284600F0CA
:104D5000C9FA0646304605B070BD0000000010805C
:104D600070B585B005460C46009410200190402097
:104D70000290002003904FF480600490694628461A
:104D8000FFF799FF41F288321021284600F0A2F97E
:104D90000646304605B070BD70B585B005460C4678
:104DA00000940620019040200290002003904FF4D0
:104DB0008060049069462846FFF77DFF41F2883203
:104DC0000621284600F086F90646304605B070BD3B
:104DD00030B585B004460020009001900290039009
:104DE0004FF48060049069462046FFF764FF204638
:104DF00000F050F90546284605B030BD30B585B005
:104E000004464FF4D5700090082001904020029095
:104E1000002003904FF48060049069462046FFF71D
:104E20004AFF204600F0E6FA0546284605B030BDA8
:104E300070B585B005460C460094122001904020C4
:104E40000290002003904FF4806004906946284649
:104E5000FFF731FF41F288321221284600F03AF97B
:104E60000646304605B070BD70B585B005460C46A7
:104E700000941120019040200290002003904FF4F4
:104E80008060049069462846FFF715FF41F288329A
:104E90001121284600F01EF90646304605B070BDC7
:104EA000F0B585B0064614461D46009407200190D3
:104EB00040200290002003904FF4806004906946E7
:104EC0003046FFF7F8FE41F288320721304600F005
:104ED00001F90746384605B0F0BD30B585B0044647
:104EE0000020009002200190C0200290002003903A
:104EF0004FF48060049069462046FFF7DCFE2046B0
:104F000000F0BEF90546284605B030BD70B585B045
:104F100005460C46009409200190C0200290002014
:104F200003904FF48060049069462846FFF7C3FE63
:104F3000284600F0A5F90646304605B070BD30B5EC
:104F400085B004460020009033200190402002905C
:104F5000002003904FF48060049069462046FFF7DC
:104F6000AAFE41F288323321204600F0B3F805460C
:104F7000284605B030BD70B585B005460C46009496
:104F80000D20019040200290002003904FF480609B
:104F9000049069462846FFF78EFE41F288320D21C3
:104FA000284600F097F80646304605B070BD70B54B
:104FB00085B005460C46002000900320019040205B
:104FC0000290002003904FF48060049069462846C8
:104FD000FFF771FE22460321284600F0AFF906468E
:104FE000304605B070BD000030B585B004460020E5
:104FF00000900C20019040200290002003904FF47C
:105000008060049069462046FFF755FE044A0C2153
:10501000204600F05FF80546284605B030BD000088
:1050200000E1F50570B585B005460C4600941920E1
:10503000019040200290002003904FF48060049083
:1050400069462846FFF737FE41F288321921284683
:1050500000F040F80646304605B070BD70B585B02A
:1050600005460C4600941820019040200290002034
:1050700003904FF48060049069462846FFF71BFEBA
:1050800041F288321821284600F024F806463046BE
:1050900005B070BD01460E480068C0084FF47A7331
:1050A000B0FBF3F041F2883300FB03F200BF101EA7
:1050B000A2F1010202D14FF000407047486B00F0AE
:1050C00080000028F3D0C52088630020F5E70000A9
:1050D000480000202DE9F04305460F4690466648FB
:1050E0000068C0084FF47A71B0FBF1F000FB08F9DA
:1050F00000BFB9F10000A9F1010903D14FF0004050
:10510000BDE8F0836E6B06F045000028F1D006F490
:1051100000600028EDD1686B00F0040010B104209D
:10512000A863EDE7686B00F0010010B10120A863EF
:10513000E6E7C520A8632846FFF783FDB84201D003
:105140000120DDE700212846FFF784FD04464B4897
:10515000204008B90020D3E704F00040B0F1004F30
:1051600002D14FF00070CBE704F08040B0F1804FE7
:1051700001D14020C4E704F00050B0F1005F01D13C
:105180008020BDE704F08050B0F1805F02D14FF481
:105190008070B5E704F00060B0F1006F02D14FF409
:1051A0000070ADE704F08060B0F1806F02D14FF481
:1051B0008060A5E704F08070B0F1807F02D14FF4E9
:1051C00000609DE704F40000B0F5000F02D14FF439
:1051D000805095E704F48000B0F5800F02D14FF4C1
:1051E00000508DE704F40010B0F5001F02D14FF419
:1051F000804085E704F48010B0F5801F02D14FF4A1
:1052000000407DE704F48020B0F5802F02D14FF4F8
:10521000003075E704F40030B0F5003F02D14FF4E0
:1052200080206DE704F48030B0F5803F02D14FF468
:10523000002065E704F40040B0F5004F02D14FF4C0
:1052400080105DE704F48040B0F5804F02D14FF448
:10525000001055E704F40050B0F5005F02D14FF4A0
:1052600080004DE704F00800082801D1000547E759
:105270004FF4803044E700004800002008E0FFFDC4
:1052800010B5014616480068C0084FF47A74B0FBA8
:10529000F4F041F2883400FB04F300BF181EA3F1C0
:1052A000010302D14FF0004010BD4A6B02F04500EF
:1052B0000028F3D002F400600028EFD1486B00F022
:1052C000040010B104208863EEE7486B00F0010091
:1052D00010B101208863E7E7C52088630020E3E779
:1052E0004800002010B5014613480068C0084FF47C
:1052F0007A74B0FBF4F041F2883400FB04F300BF91
:10530000181EA3F1010302D14FF0004010BD4A6BFB
:1053100002F045000028F3D002F400600028EFD12D
:10532000486B00F0040010B104208863EEE7C5204C
:1053300088630020EAE70000480000202DE9F043E0
:1053400004460F4690462A480068C0084FF47A7118
:10535000B0FBF1F041F2883100FB01F900BFB9F177
:105360000000A9F1010903D14FF00040BDE8F0832E
:10537000666B06F045000028F1D006F400600028B6
:10538000EDD1606B00F0040010B10420A063EDE7E4
:10539000606B00F0010010B10120A063E6E7204639
:1053A000FFF74FFCB84201D00120DFE7C520A06322
:1053B00000212046FFF74EFC054605F4604020B969
:1053C000280CA8F800000020D0E705F48040B0F5D4
:1053D000804F02D14FF40050C8E705F40040B0F50B
:1053E000004F02D14FF48050C0E74FF48030BDE74A
:1053F0004800002010B5014618480068C0084FF466
:105400007A74B0FBF4F041F2883400FB04F300BF7F
:10541000181EA3F1010302D14FF0004010BD4A6BEA
:1054200002F045000028F3D002F400600028EFD11C
:10543000486B00F0040010B104208863EEE7486B6D
:1054400000F0010010B101208863E7E7486B00F02D
:10545000400008B1402088630020DFE748000020BA
:1054600010B5064C01202070FBF73AFB18B92078E4
:1054700020F001002070207810BD00008001002085
:1054800070B5054605F008FB044605F005FB001B5A
:10549000A84207D2FBF724FB38B105F0FDFA001B48
:1054A000A842F7D34FF0FF3070BD002070BD000060
:1054B0002DE9F0410646B46B3046FBF7CBFF0228DE
:1054C0002CD0206C476DE06BD0F85480012F02D0B7
:1054D000B8F1010F1FD11248216888632068C06BA2
:1054E00020F49D702168C863A06B40F08040A063E9
:1054F0002046FDF7E0FA0546062D01D0052D05D121
:105500002068FFF771FDA16B0843A063012084F8B8
:105510003400002020632046FDF7D4F9BDE8F08177
:10552000FF05400070B50646B46B206B82280AD197
:105530002068FFF759FD05462DB1A06B2843A063F5
:105540002046FDF7BFF92068C06A20F008002168F6
:10555000C86240F23A5021688863012084F8340020
:10556000002020632046FDF7A7FD70BD70B50546FD
:10557000AC6B40F23A50216888632046FDF79BFAF5
:105580000646012084F8340000202063062E01D056
:10559000052E05D12068FFF727FDA16B0843A06306
:1055A000A06B18B92046FDF725F902E02046FDF76B
:1055B00089F970BD0146886B0268D26B42F4807233
:1055C0000368DA63704770B50546AC6B40F23A5039
:1055D000216888632046FDF76EFA0646012084F8AC
:1055E000340000202063062E01D0052E05D120684E
:1055F000FFF7FAFCA16B0843A063A06B18B9204623
:10560000FDF7F8F802E02046FDF75CF970BD2DE9E2
:10561000F04389B004460F46FCF7C0FA81464FF0CC
:1056200000080020019002903E4608212068FFF704
:1056300097FB05461DB1284609B0BDE8F08350220E
:10564000125B11042068FFF750FB05460DB1284698
:10565000F2E74FF0FF3003900820049030200590CF
:1056600002200690002007900120089003A92068DE
:10567000FFF7D1FA2068FFF762FC05460DB1284616
:10568000DAE71CE02068406B00F4001040B12068AD
:10569000FFF70DFB01A941F8280008F1010805E01A
:1056A0002068406B00F4005000B90EE0FCF776FA79
:1056B000A0EB0900401C10B94FF00040BCE7206887
:1056C000406B00F02A000028DCD000BF2068406B4F
:1056D00000F0080020B92068406B00F4007018B199
:1056E000082021688863A7E72068406B00F002006B
:1056F00018B10220216888639EE72068406B00F0A3
:10570000200018B120202168886395E740F23A50C4
:105710002168886302980006029901F47F4140EAFB
:105720000120029901F47F0140EA1120029940EA28
:1057300011603060361D01980006019901F47F4127
:1057400040EA0120019901F47F0140EA112001990A
:1057500040EA1160306000206EE730B58FB004463B
:10576000012003902068FFF770FA18B94FF08060AD
:105770000FB030BD606C03281BD02068FFF7ADFB75
:1057800005460DB12846F3E700212068FFF762FACD
:10579000606704212068FFF75DFAA0670821206890
:1057A000FFF758FAE0670C212068FFF753FA8021D1
:1057B0000851606C032807D003A92068FFF7F7FBA6
:1057C00005460DB12846D3E7606C032820D0BDF80C
:1057D0000C1021655022125B11042068FFF796FB24
:1057E00005460DB12846C3E700212068FFF732FACD
:1057F000606604212068FFF72DFAA0660821206862
:10580000FFF728FAE0660C212068FFF723FA2067EB
:1058100004212068FFF71EFA010DE16404A9204667
:10582000FDF752F810B14FF08050A1E75020005B17
:1058300001040A4600232068FFF732FB05460DB13C
:10584000284695E7D4E90412A069CDE90012029038
:1058500094E80F00FFF70CFA002089E7F8B504463A
:1058600000200090002600272068FFF7B1FA0546C7
:105870000DB12846F8BD2068FFF7C0FA054645B1CE
:105880000021A1642068FFF7A3FA05461DB1284650
:10589000F0E70121A164A06C012808D10021206853
:1058A000FFF723FA054615B14FF08050E2E71DE0FF
:1058B00000212068FFF719FA05460DB12846D9E7FF
:1058C00018492068FFF72EFA054615B14FF08050B1
:1058D000D0E700212068FFF7BDF90646012080EAE5
:1058E000D67080F001070098401C00904FF6FF71C1
:1058F0000098884201D2002FDAD04FF6FF7100984D
:10590000884202D34FF08070B4E706F08040B0F1D7
:10591000804F02D10120606401E00020606400201B
:10592000A8E70000000010C12DE9F0410546AC6A6F
:10593000EF6AE7B14FF0000814E02868FFF7B7F905
:1059400006462670641C7F1E300A2070641C7F1E71
:10595000300C2070641C7F1E300E2070641C7F1E73
:1059600008F10108B8F1080FE7D3AC62EF62BDE8B7
:10597000F08170B504460D4615B94FF0006070BD5A
:105980005022125B11042068FFF7F5FA06460EB1AB
:105990003046F4E700212068FFF75CF9286000201A
:1059A000EDE77CB5044600200090019000212068BE
:1059B000FFF750F900F00070B0F1007F02D14FF412
:1059C00000607CBD69462046FFF721FE05460DB10B
:1059D0002846F6E7019800F4803098B15022125B17
:1059E00011042068FFF781F905460DB12846E8E764
:1059F00000212068FFF7D0F905460DB12846E0E701
:105A00000020DEE74FF08060DBE77CB50446002035
:105A10000090019000212068FFF71CF900F0007051
:105A2000B0F1007F02D14FF400607CBD6946204692
:105A3000FFF7EDFD05460DB12846F6E7019800F4A5
:105A4000802098B15022125B11042068FFF74DF9B5
:105A500005460DB12846E8E702212068FFF79CF9CA
:105A600005460DB12846E0E70020DEE74FF08060F4
:105A7000DBE7F8B505462C6A6E6A1EB300271DE009
:105A800020780090641C761E2078009941EA00205E
:105A90000090641C761E2078009941EA0040009036
:105AA000641C761E2078009941EA00600090641C16
:105AB000761E69462868FFF712F97F1C082FDFD38E
:105AC0002C626E62F8BD000030B583B00546124C02
:105AD0000120207004F0D2FFD8B1FBF70DF818B9FF
