:020000040800F2
:1000000078B00020610200088973000821650008AB
:1000100085730008A91B0008219D0008000000004E
:10002000000000000000000000000000A101000826
:100030006923000800000000FD0100083D8B000856
:100040007B0200087B0200087B0200087B0200089C
:100050007B0200087B0200087B0200087B0200088C
:100060007B0200087B0200087B0200087B0200087C
:100070007B0200087B0200087B0200087B0200086C
:100080007B0200087B0200087B0200087B0200085C
:100090007B0200087B0200087B0200087B0200084C
:1000A0007B020008319300087B02000821930008BE
:1000B0007B0200087B0200087B0200087B0200082C
:1000C0007B0200087B0200087B0200087B0200081C
:1000D0007B0200087B0200087B0200080D9D0008DF
:1000E0007B0200087B0200087B0200087B020008FC
:1000F0007B0200087B0200087B0200087B020008EC
:100100007B020008657400087B0200087B0200087F
:100110007B0200087B0200087B0200087B020008CB
:100120007B0200087B0200087B020008491E0008D1
:100130007B0200087B0200087B0200087B020008AB
:100140007B0200087B0200087B0200087B0200089B
:100150007B020008591E00087B0200087B02000891
:100160007B0200087B0200087B0200087B0200087B
:100170007B0200087B0200087B02000800000000F0
:100180007B0200087B020008DFF810D000F0EAFED6
:1001900000480047A1DB0008AFF3008078B00020E2
:1001A0002C4B19680868B0E8F04F80F30988BFF35A
:1001B0006F8F4FF0000080F311887047000000003F
:1001C00008480068006880F308884FF0000080F35A
:1001D000148862B661B6BFF34F8FBFF36F8F00DF35
:1001E00000BF00BF08ED00E0DFF80C00016841F43B
:1001F00070010160704700BF88ED00E0EFF30980F7
:10020000BFF36F8F134B1A681EF0100F08BF20ED5D
:10021000108A20E9F04F106009B44FF0500080F3CD
:100220001188BFF34F8FBFF36F8F0FF047FE4FF072
:10023000000080F3118809BC19680868B0E8F04F25
:100240001EF0100F08BFB0EC108A80F30988BFF3CE
:100250006F8F70470C010020EFF30580704700009E
:100260000648804706480047FEE7FEE7FEE7FEE750
:10027000FEE7FEE7FEE7FEE7FEE7FEE7A1920008E5
:10028000890100082DE9F05F0546002092469B4653
:1002900088460646814640241BE02846414647469C
:1002A000224600F01EFC53465A46C01A914110D314
:1002B00011461846224600F005FC2D1A67EB01088E
:1002C0004F4622460120002100F0FCFB17EB0009FD
:1002D0004E41201EA4F10104DFDC484631462A4687
:1002E0004346BDE8F09F40EA01039B0703D009E0C5
:1002F00008C9121F08C0042AFAD203E011F8013B12
:1003000000F8013B521EF9D27047D2B201E000F86A
:10031000012B491EFBD270470022F6E710B51346A9
:100320000A4604461946FFF7F0FF204610BD30B5D7
:1003300005462A460B4612F8010B13F8014B08B18B
:10034000A042F8D01CB1002802D06D1CF1E728466D
:1003500030BD10B5044604E00B7800F8013B03B152
:10036000491C521EF8D2204610BDCAB2401E10F8D9
:10037000011F8A4202D00029F9D100207047421C97
:1003800010F8011B0029FBD1801A704710B500221C
:1003900000E0521C835C8C5CA34201D1002BF8D19D
:1003A000D8B2E1B2401A10BD30B504460020034671
:1003B00000E05B1C934203D2E05CCD5C401BF8D0B4
:1003C00030BD034611F8012B00F8012B002AF9D1AA
:1003D0001846704730B505460020034600E05B1C18
:1003E000934205D2EC5CC85C201A01D1002CF6D1F6
:1003F00030BD10B508E00A4602E0A34208D0521C06
:100400001378002BF9D1401C0478002CF3D1002084
:1004100010BD00000FB400B58DB010A909900B906D
:1004200000914FF0FF300A9000200C900548069094
:10043000054807906A4609A80F9900F077FB0DB0B0
:100440005DF814FB490B0008670B00082DE9FF5FFE
:100450001D464FF0FF3BD5E9014691465F464FF000
:100460000008A9697F1C01988847296A8246884745
:100470000028F6D1BAF1FF3F0CD024F4C064002E5E
:1004800019DD600614D5BAF12B0F09D0BAF12D0F82
:100490000ED103E0584604B0BDE8F09F44F48064F8
:1004A000A9697F1C01988847761E8246002E02DDCE
:1004B000BAF1300F03D0B9F1000F26D032E0A969AC
:1004C000761E44F400747F1C019888478246002EF3
:1004D00005DDBAF1780F06D0BAF1580F03D0B9F1A3
:1004E000000F10D01EE0B9F1000F02D0B9F1100FCB
:1004F00018D1A969761E24F400747F1C01988847DE
:100500008246102002E0082000E00A20814609E02F
:1005100008FB0908A969761E44F400747F1C019841
:1005200088478246002E05DD4946504600F0E9FA2C
:100530000028EDDAE96901988847A00502D46FF038
:100540000100A8E7E00725D1600613D5600502D5B4
:10055000C8F1000000E0404629680A1D2A600968C9
:10056000220501D5087015E0220701D5088011E0A9
:1005700008600FE02868011D29600068210502D588
:1005800080F8008006E0210702D5A0F8008001E095
:10059000C0F8008038467EE72DE9FF4F087883B029
:1005A0009946FF2805D0491C2D2804D0002400209E
:1005B00008E000200BE00124F9E700EB800003EBEA
:1005C0004000491C0B78FF2BF7D104B140420023B7
:1005D0000293147819461D462D2C01D02B2C04D1E2
:1005E000521C2D2C13D000240294AA461478FF2C00
:1005F0000FD00A25A3FB057801FB05814FF0000C05
:1006000003FB0C11521CE3194AEB0101EEE7012434
:10061000EAE7814453EA010002D019F5C87F06DAFF
:1006200003980021C0E9001107B0BDE8F08F002554
:10063000AE4E2F46DFF8B882184600F053FCCDE9E5
:100640000001B9F1000002DAC9F1000400E004463B
:100650000023A74A1AEB030B42EB045A12E0E0070F
:1006600007D02A4633463846414600F0C9FB0746C4
:1006700088462A4633461046194600F0C1FB054617
:100680000E466410002CEAD1DDE90001B9F1000F3B
:100690005A46534606DA00F03CF93A46434600F023
:1006A00038F905E000F0ACFB3A46434600F0A8FB01
:1006B000029A0AB181F00041039AC2E90001B3E74E
:1006C0002DE9FF4F1F468DB0D7E901464FF0FF38A7
:1006D0002E2045464FF000090B90B9696D1C0E980D
:1006E0008847396A824688470028F6D1BAF1FF3F29
:1006F0000AD024F4D064002E11DDBAF12B0F08D0FB
:10070000BAF12D0F0BD102E0404611B08DE744F451
:100710008064B9696D1C0E9888478246761E6946CA
:10072000600501D52D2000E02B208DF8000001F19F
:10073000010B0DF1200809E0B9696D1C0E9888477E
:1007400082460F9844F40074761E0560002E02DD88
:10075000BAF1300FF0D00B998A453ED144F08004B5
:1007600006E00F99681CA9F1010944F400740860BF
:10077000B9696D1C761E0E98884782463028F0D0E5
:100780002BE00B998A4505D1200603D444F0800460
:10079000761E18E0504609F06BFC08B30DF113010A
:1007A000761E44F400748B4508D2AAF130000BF891
:1007B000010B200607D5A9F1010003E0200602D4B1
:1007C00009F101008146A00502D50F99681C086057
:1007D000B9696D1C0E9888478246002ED1DC53E023
:1007E000002E51DDBAF1650F02D0BAF1450F4BD1A1
:1007F000A00549D5B9696D1C24F44074761E0E9885
:1008000088478246002E0CDD2B2804D0BAF12D0F2C
:1008100007D144F48074B9696D1C0E9888478246EC
:10082000761EE00501D52D2100E02B2108F8011BE3
:10083000CDF82C8021E00DF12901761E44F40074DE
:1008400088450CD2AAF1300010F0FF0088F80000B3
:1008500002D10B99884509D908F1010806E0E005A5
:1008600001D5244801E042F20F708146B9696D1C40
:100870000E98884782460F980560002E04DD50468A
:1008800009F0F6FB0028D6D1F9690E988847FF20B9
:100890008BF8000088F800000020069007904B4677
:1008A0006A4608A906A8FFF777FEA00502D46FF0F4
:1008B00001002AE714F0240F0AD0E00714D1DDE983
:1008C00006123868031D3B600068C0E900120BE0A7
:1008D000DDE9060100F02AFB0146E00704D1386893
:1008E000021D3A600068016028460EE700001440CF
:1008F0000000F03FF1D8FFFF70B5064609F0E2FABC
:10090000046805460A220021304600F03DF92C60BB
:1009100070BD2DE9F04D81EA030404F0004B21F095
:10092000004514464FF0000A23F0004150EA05024A
:1009300020D054EA01021DD0C5F30A570246C5F380
:100940001303C1F31300C1F30A5640F4801543F4B6
:100950008013A7EB0608101BD64608F2FD3873EB90
:10096000050002D308F1010801E092185B41B8F1DB
:10097000000F03DA00200146BDE8F08D00204FF49F
:100980008011064684460EE0171B73EB050705D35E
:10099000121B63EB050306434CEA010C49084FEABE
:1009A000300092185B4150EA0107EDD152EA030092
:1009B00012D082EA040083EA0501084305D0101B27
:1009C000AB4106D20122002306E000224FF0004393
:1009D00002E06FF0010253101AEB06004CEB0851D5
:1009E00010EB0A0041EB0B01BDE8F04D00F004B93B
:1009F0000EB5C10F80EAE0700844CA07002140F23A
:100A000033438DE80E000A460B4600F004F903B0AC
:100A100000BD00F0004230F000400AD0C10D01F5E9
:100A20006071C0F3160042EA0151C2084007114349
:100A3000704700200146704730B5041E71F1000474
:100A400004DB4FF00044404264EB0101141E73F1DB
:100A5000000405DB1C464FF00043524263EB0403E5
:100A60008B4208BF824230BD30B5041E71F10004D4
:100A700004DB4FF00044404264EB0101141E73F1AB
:100A8000000405DB1C464FF00043524263EB0403B5
:100A9000994208BF904230BD30B50B460146002058
:100AA0002022012409E021FA02F59D4205D303FA30
:100AB00002F5491B04FA02F52844151EA2F10102B1
:100AC000F1DC30BD202A04DB203A00FA02F10020DC
:100AD00070479140C2F1200320FA03F3194390407C
:100AE0007047202A04DB203A21FA02F000217047E7
:100AF00021FA02F3D040C2F1200291400843194686
:100B000070473A2800D2303820F02002412A01D321
:100B1000A2F13700884201D34FF0FF307047000048
:100B2000026811441378016018467047D160044987
:100B300051610449116200211161114600F044BA6B
:100B4000210B0008B50F0008426842B1016811F896
:100B5000013B23B1521EC0E9001218467047012123
:100B6000C160881E704742685AB1C368016843B9C2
:100B700083688B4205D0491E521CC0E90012002038
:100B800070474FF0FF3070472DE9F04791460F4610
:100B900080460446002614F8015B2DB100F006FAE9
:100BA0000068405DC007F6D12B2D02D02D2D18D046
:100BB000641E4A463946204600F09EFB27B139683C
:100BC000A14201D1C7F8008071054FF002040BD596
:100BD0004042002803DD09F075F90460A007BDE874
:100BE000F08746F48066E4E70028F8DA09F06AF94D
:100BF00004606FF00040F2E710B5141E73F10004BA
:100C000008DA401C41F1000192185B411A4301D1FE
:100C100020F0010010BD2DE9F04D92469B4611B128
:100C2000B1FA81F202E0B0FA80F220329046FFF78A
:100C300049FF04460F4640EA0A0041EA0B015346C9
:100C40005A46084313D0114653EA010019D0C8F19F
:100C500040025046FFF745FF05460E4650465946AE
:100C60004246FFF72FFF084305D0012004E020464D
:100C70003946BDE8F08D0020054346EAE0762C4376
:100C800037430A986305E40AA0EB08000022FD0A36
:100C900044EA47540A3002D500200146E9E701053D
:100CA00010196941DDE9084500196941BDE8F04DB9
:100CB000A2E72DE9FE4F804681EA0300C00F0C46F3
:100CC000009021F0004123F00045B8EB0200A9415B
:100CD00005D24046214690461C460B46024623F06C
:100CE0000040104347D0270DC7F30A00C3F30A5151
:100CF0000290401A019040286BDAC3F3130040F4CD
:100D0000801B0098924620B10023D2EB030A63EBCC
:100D10000B0B01985946C0F140025046FFF7D2FE36
:100D200006460D4650465946019A00F02DF910EB43
:100D300008006141002487EA115284EAE7731A43EC
:100D400040D0009A62B3019A012A4FEA075215DC9B
:100D5000001B61EB02014FF0004202EA0752CDE9AD
:100D60000042001C41F5801132462B46FFF753FF2D
:100D700003B0BDE8F08F40462146F9E7001B61EB68
:100D80000201001C41F5801300185B412018A2F5F8
:100D9000001747EB030140EAD570B6196D4111E029
:100DA0006D084FEA360645EAC0754FEA0752001B48
:100DB00061EB0201001C41F5801149084FEA300047
:100DC0000019514132462B4603B0BDE8F04FFFF702
:100DD00013BF0098012240000023D0EB020263EB16
:100DE000E073009821464FEAE074B8EB000061EB35
:100DF0000401E9E783F000435BE781F0004158E735
:100E00002DE9FE4F81EA030404F0004421F0004183
:100E100000944FF0000B23F0004350EA01045ED031
:100E200052EA03045BD0C3F30A54C1F30A552C44BD
:100E3000A4F2F3340194A0FB0254C1F3130141F472
:100E40008011C3F3130343F4801301FB024400FB3E
:100E5000034E840A970A44EA815447EA8357A4FB65
:100E6000076802958D0A05FB07854FEA932C04FB62
:100E70000C542705029D4FEA065847EA1637B5EB92
:100E800008056EEB070C870E920E47EA811742EABF
:100E90008312A7FB0201B6EB0B0164EB00042B0DE0
:100EA00043EA0C335E1844EB1C50DA465146E7FB2C
:100EB0000201C5F313044FEA0B3343EA14534FEA1C
:100EC0000432019C43EA0603A4F10C040294009C42
:100ED000CDE900B4FFF79FFE03B0BDE8F08F00201E
:100EE0000146F9E70EB540F2334202920022CDE905
:100EF00000221346FFF78FFE03B000BDC1F30A5274
:100F0000C1F3130140F2FF3341F480119A4202DA37
:100F100000200146704740F233439A42A2F2334226
:100F200002DC5242FFF7DDBDFFF7CCBD01F000430C
:100F300030B421F0004150EA010206D00A0DA2F5BA
:100F40006072C1F31301002A02DC30BC002070473C
:100F5000440F44EAC104C100E01830BC00EBC250A9
:100F600000F019BA064C074D06E0E06840F00103B6
:100F700094E8070098471034AC42F6D3FFF708F91D
:100F80004008060860080608202A06DBCB17203A2E
:100F900041FA02F043EAE07306E041FA02F3D0407E
:100FA000C2F120029140084319467047004870473B
:100FB0001807060810B50446FFF7F8FF0068005D43
:100FC00000F0010010BD00002DE9F34F8BB04FF091
:100FD000000801F10C000C464FF0010B46460DF1E4
:100FE000080A01906269012101989047051E2DD0E1
:100FF000252D2CD0216A8847C0B162690121019852
:101000009047216A88470028F7D1411E62690198FC
:10101000904700E0761CA1690B988847216A8847B1
:101020000028F7D1E1690B988847DBE7A1690B98A5
:1010300088470746A84201D1761CD3E7E1690B989F
:1010400088477F1C02D1B8F1000F6FD047E100271D
:1010500062693D463946019890472A2804D1626961
:101060000121019890470125DFF8889262690121EA
:1010700001989047A0F130010A290AD24F45E5DCDA
:1010800007EB870100EB4107303FDFD445F0100547
:10109000ECE7E90601D46FF000476C280AD04C2831
:1010A00014D0682815D06A280DD074281CD07A284E
:1010B0001AD01DE062690121019890476C2802D086
:1010C00045F0040514E045F002050DE045F020056B
:1010D0000AE06269012101989047682802D045F032
:1010E000080505E045F40065626901210198904713
:1010F000C4E9015765283DD019DC58287AD00CDCAA
:10110000452837D004DC252826D0412831D131E0CC
:1011100046282FD047282CD12CE05B2877D0612897
:1011200028D063287CD0642823D15AE0D1E06F28EE
:1011300048D008DC66281DD067281BD0692821D03C
:101140006E2816D127E0702845D0732868D07528FE
:1011500047D078280DD14DE0A1690B988847054606
:1011600025283FF469AFE1690B9888476D1C3FF46F
:101170006AAFB4E023466A466FF001000B99FFF7AF
:101180009FFA9FE045F040006060A80723464FF0BB
:10119000000236D43EE0E8077FF447AF2068011D27
:1011A00021600068290501D506701BE7290701D5D4
:1011B000068017E7A90703D5F117C0E9006111E719
:1011C00006600FE745F040006060A80723464FF037
:1011D000080216D41EE040F60E0125EA0100606008
:1011E00016E045F040006060A80723464FF00A0271
:1011F00007D40FE045F040006060A80708D52346FB
:1012000010226FF001000B99AFF300805AE007E065
:10121000234610226FF001000B99FFF717F951E0F8
:101220004FF000094F464B46632802D05B2807D099
:1012300041E02079C00601D40120A06001273AE0F6
:1012400062690121019890475E2805D14FF001099C
:101250006269494601989047216939B900210A46D7
:10126000534643F82120491C0829FADBB0B3216911
:1012700069B9C11700EBD16253110AEB830122F067
:101280001F02821A01200B68904003430B606269C1
:101290000121019890475D28E8D1B9F1000F09D0EC
:1012A0000020514651F82020D24341F82020401C14
:1012B0000828F7DB02AB224600976FF001000B997C
:1012C000AFF3008000280CDA401C08D1BBF1000FFE
:1012D00005D04FF0FF300DB0BDE8F08FFFE740467E
:1012E000F9E7E90701D108F1010806444FF0000BC6
:1012F00078E60000CCCCCC0C2DE9F05F824600787B
:10130000002715468B460AF10104B946302801D062
:101310009DB113E014F8010B0127782803D0582859
:1013200001D045B10AE00DB1102D07D100271025DD
:1013300014F8010B02E0082500E00A250026B0465B
:101340000EE005FB080005FB06F1012701EB104646
:101350001FFA80F8B6F5803F00D3B94614F8010BA8
:101360002946FFF7CEFB0028EBDABBF1000F05D0D2
:101370000FB1641E00E05446CBF80040B9F1000FF5
:1013800006D008F09FFD02210160C81EBDE8F09F55
:1013900048EA0640FAE70029A8BF7047401C490008
:1013A00008BF20F00100704710B4B0FA80FC00FACA
:1013B0000CF050EA010404BF10BC704749B1CCF1F5
:1013C000200421FA04F411FA0CF118BF0121214381
:1013D0000843A3EB0C01CB1D4FEA00614FEA10203C
:1013E00042BF002010BC704700EBC35010440029DE
:1013F000A4BF10BC7047401C490008BF20F001008A
:1014000010BC704770B58C1810F8015B15F007031D
:1014100001D110F8013B2A1106D110F8012B03E08D
:1014200010F8016B01F8016B5B1EF9D12B0705D495
:101430000023521E0DD401F8013BFAE710F8013BDE
:10144000CB1A921C03E013F8015B01F8015B521EFA
:10145000F9D5A142D8D3002070BD000010B50648D0
:1014600001F006FD0A21044801F09AFC024801F04F
:101470001FFC80B210BD0000C401002070B50446FE
:101480000025002600BF03E0FFF7E8FF0544761CB7
:10149000A642F9D3B5FBF4F070BD000055494A6887
:1014A00022F440324A604A6843681A434A6002683C
:1014B000526822F4807203685A60026853680269B5
:1014C00043EA022203685A600268526822F04072BE
:1014D00003685A600268526883681A4303685A6056
:1014E0000268926822F4006203689A600268926857
:1014F000C3681A4303689A603F4B826A9A4218D0C5
:101500000268926822F0706203689A6002689268CA
:10151000836A1A4303689A600268926822F0405214
:1015200003689A6002689268C36A1A4303689A6003
:101530000BE00268926822F0706203689A600268A9
:10154000926822F0405203689A600268926822F022
:10155000020203689A6002689368027E43EA4202CC
:1015600003689A602022125CA2B10268526842F4B9
:10157000006203685A600268526822F4604203689D
:101580005A6002685368426A521E43EA4232036854
:101590005A6005E00268526822F4006203685A60EB
:1015A0000268D26A22F470020368DA620268D36ABF
:1015B000828B521E43EA02520368DA620268926822
:1015C00022F4007203689A600268936890F83020F1
:1015D00043EA422203689A600268926822F48062B9
:1015E00003689A6002689368426943EA822203684A
:1015F0009A607047002301400100000F0EB500F013
:101600007DFD012805D01DA008F01CFC07F022FE7E
:1016100002E021A008F016FC2FE026488068401C5C
:10162000244988602448007888B12449487B01F027
:101630002DFA2248407D10B100F039FB01E000F0A6
:1016400031FB1FA008F0FEFB00201B490870684614
:1016500006F022FF9DF80000142807D19DF8010034
:1016600020B99DF8020008B907F024FE134800F0E5
:1016700037F841F288300EF0CDFACEE75B434C4F9D
:1016800055445D205344E58DA1E68C82E8BDBDE55F
:10169000A4B1E8B4A50D0A005B434C4F55445D204E
:1016A0005344E58DA1E68C82E8BDBDE68890E58ACD
:1016B0009F0A0000A80100203000002098080020A8
:1016C0005B4155544F5D20E8AEBEE5A487E78AB67E
:1016D000E68081E5B7B2E681A2E5A48D0D0A00009F
:1016E0002DE9F0412DED048B0446207B012875D1B6
:1016F000607B20B9206904F015FF00286ED1804876
:1017000090ED000AB0EE408A2046B0EE480A01F0A3
:10171000D7F90546667BB54212DD65730120A073DB
:10172000284601F0B3F918EE100AFFF772F941EC00
:10173000190B53EC192B294672A008F083FB4CE0DF
:10174000B5424ADA9FED7C0AF0EE408A012E06D0BF
:10175000022E0DD0032E14D0042E24D11AE094EDC5
:10176000010ADFED750A30EE200AF0EE408A1AE039
:1017700094ED010AF0EE040A30EE200AF0EE408A01
:1017800011E094ED010AF1EE040A30EE200AF0EEC9
:10179000408A08E094ED010AF1EE0E0A30EE200ACC
:1017A000F0EE408A00BF00BFB4EEE88AF1EE10FA16
:1017B00012D265730DB90020A073284601F066F9B6
:1017C00018EE100AFFF725F941EC190B53EC192B11
:1017D00029465AA008F036FB00BF00BF207D012833
:1017E00045D1607D20B9A06904F09CFE00283ED15F
:1017F000434890ED020ABCEEC00A10EE100A85B212
:10180000608900EE100AB8EE400ADFED590A20EEBA
:10181000200ABCEEC00A10EE100A86B2608900EE03
:10182000100AB8EE400AF6EE000A20EE200ABCEEDE
:10183000C00A10EE100A87B2607D50B9B54208DDCB
:101840000120607500F033FA29464AA008F0FAFA40
:101850000CE0607D012809D1BD4207DA00206075E7
:1018600000F020FA29464DA008F0ECFA00BF207FD6
:10187000012841D1607F20B9206A04F053FE00287E
:101880003AD11F4890ED020ABCEEC00A10EE100AD1
:1018900085B2208900EE100AB8EE400AF6EE000A82
:1018A00020EE200ABCEEC00A10EE100A86B2208993
:1018B00000EE100AB8EE400ADFED420A20EE200AE0
:1018C000BCEEC00A10EE100A87B2607F40B9B54284
:1018D00006DA0120607729463BA008F0B3FA0AE057
:1018E000607F012807D1BD4205DD002060772946D1
:1018F00040A008F0A7FA00BFBDEC048BBDE8F08162
:10190000880600205B4155544F5D20E9A38EE6898F
:1019100087E58D87E6A1A3202D3E202564E6A1A3BF
:101920002028E6B8A9E5BAA63A20252E3166C2B02D
:1019300043290D0A00000000000000005B415554DF
:101940004F5D20E9A38EE68987E9998DE6A1A32062
:101950002D3E202564E6A1A32028E6B8A9E5BAA675
:101960003A20252E3166C2B043290D0A000000003E
:101970009A99993F5B4155544F5D20E58DB7E5B885
:1019800098E68993E5BC802028E58589E785A73A14
:10199000202564204C7578290D0A00005B415554C0
:1019A0004F5D20E58DB7E5B898E585B3E997AD20A3
:1019B00028E58589E785A73A202564204C75782994
:1019C0000D0A0000CDCC4C3F5B4155544F5D20E8E3
:1019D000A1A5E58589E781AFE68993E5BC8020284C
:1019E000E58589E785A73A202564204C7578290D7F
:1019F0000A0000005B4155544F5D20E8A1A5E58534
:101A000089E781AFE585B3E997AD2028E58589E7CA
:101A100085A73A202564204C7578290D0A0000001E
:101A200010B50AF011FD012008F028FF642001F034
:101A300013FD072008F022FF642001F00DFD1020A7
:101A400008F01CFFB42001F007FD10BD70B50024A4
:101A500000250AF0BFFD46200AF084FD0AF002FED0
:101A6000054625B10AF0DEFDBFEE000A70BD10206C
:101A70000AF078FD0AF0F6FD054625B10AF0D2FD20
:101A8000BFEE000AF2E70AF0CDFDB42001F0E4FC5D
:101A90000AF0A0FD47200AF065FD0AF0E3FD0546C7
:101AA00025B10AF0BFFDBFEE000ADFE701200AF012
:101AB00029FD040200200AF025FD04430AF0B2FDCE
:101AC0004FF6FF70844200D014B9B8EE000ACDE79B
:101AD00000EE104AF8EE400A9FED021A80EE810AED
:101AE000C4E700009A99993F7047000001460148F9
:101AF00002F018BF2003002010B5044802F025FFB3
:101B0000042801D0012010BD002010BD20030020BA
:101B100010B500F015F8012801D0012010BD0748CC
:101B200003F034F8044634B94FF40061034802F07E
:101B3000AFFD00B10124204610BD000020030020AD
:101B400081B0012000909DF8000001B070470000B6
:101B500010B5002413460A460146034803F04EF927
:101B600000B10124204610BD2003002002480022BD
:101B7000012140680CF050B98801002010B5002404
:101B800013460A460146034803F0E8F900B1012470
:101B9000204610BD20030020024800220221406898
:101BA0000CF03AB98801002000BFFEE71CB540F6F2
:101BB000B8300EF02FF80EF083FE01900DA008F063
:101BC00041F915E017480069401C1649086100F00A
:101BD00009FB0020009000230A2269461248006891
:101BE0000EF0D0FA4FF4FA6101A80EF03BF800BFF6
:101BF000E8E700005B434C4F55445D20E4BA91E5B3
:101C0000908CE6ADA5E4BBBBE58AA1E590AFE58A83
:101C1000A82C203273E4B88AE68AA5E4B880E6AC42
:101C2000A10D0A00A8010020EC00002070B50546B7
:101C30000C4616A12846FEF7A9FB68B901201449F5
:101C40000873012C01D1042000E0002010494873E2
:101C5000487B00F01BFF18E00EA12846FEF796FB1C
:101C600058B901200A4908750846447514B100F0B6
:101C70001EF80AE000F016F807E008A12846FEF773
:101C800085FB10B9024880F8244070BD66616E0083
:101C9000980800206375727461696E006D6F6465E9
:101CA0000000000000B55A200CF014FF00BD00B584
:101CB000B4200CF00FFF00BD70B504464FF6FF7561
:101CC00002E0012008F08CFF4FF40071074801F09A
:101CD00075FDA04204D1281EA5F101018DB2F0D1FD
:101CE00015B94FF0FF3070BD0020FCE7001802402E
:101CF00000B587B0142102A8FEF70EFB00BF00203C
:101D000001900D48006840F040000B49086008460B
:101D1000006800F04000019000BF00BF481502902D
:101D20000020039004900320059002A9034801F0CD
:101D30004BFC07B000BD00003038024000180240E4
:101D400000B587B0142102A8FEF7E6FA00BF002014
:101D500001900D48006840F040000B4908600846BB
:101D6000006800F04000019000BF00BF48150290DD
:101D70000120039004900320059002A9034801F07C
:101D800023FC07B000BD00003038024000180240BC
:101D900010B5002404E0012008F022FF601CC4B24A
:101DA0004FF40071194801F009FD012801D1642C9C
:101DB000F1DB642C01DB012010BD002404E00120D4
:101DC00008F00EFF601CC4B24FF400710F4801F020
:101DD000F5FC08B9642CF2DB642C01DB0220EBE794
:101DE000002404E0012008F0FBFE601CC4B24FF4A4
:101DF0000071064801F0E2FC012801D1642CF1DBFE
:101E0000642C01DB0320D7E70020D5E7001802404F
:101E100010B5FFF795FF00BF00224FF4007109488D
:101E200001F0D4FC00BF142001F016FB00BF01221A
:101E30005102044801F0CAFC00BF1E2008F0D0FE89
:101E400010BD00000018024010B5024801F024F94E
:101E500010BD0000A403002010B5024801F01CF9D9
:101E600010BD000004040020014608781038182333
:101E7000B0FBF3F20848805CC865032A05D90868FE
:101E80006FF30900001D886503E008686FF309001F
:101E90008865886D70470000EC0C01080146002041
:101EA0008A6A8B69CBB932B1012A0DD0022A03D0DC
:101EB000032A10D10EE000BFCB6A03F08073B3F1A8
:101EC000807F00D1012007E0CB6AB3F1C07F00D151
:101ED000012001E000E000BF34E08B69B3F5005F52
:101EE0001AD132B1012A07D0022A03D0032A11D114
:101EF0000AE000BF01200EE0CB6A03F08073B3F16B
:101F0000807F00D1012006E0CB6AB3F1C07F00D111
:101F1000012000E000BF15E032B1012A05D0022AFD
:101F200004D0032A0CD103E000BF00BF012008E069
:101F3000CB6A03F08073B3F1807F00D1012000E011
:101F400000BF00BF704730B50468246824F48024C3
:101F500005682C60046863608468402C04D10468C0
:101F6000A2600468E16003E00468A1600468E260C4
:101F700030BD0000F0B5A9B0002626A806F08CFA06
:101F800034A007F05FFF3EA10AA809F03BFB05461D
:101F900025B13BA009F02FF929B0F0BD4EE004A90E
:101FA0000AA809F08EFD054615B99DF8190000B97B
:101FB00045E00DF11900FEF7E2F904460B2C08D3B9
:101FC0000DF119012144081F042230A1FEF702FA85
:101FD00000B133E001A802AB03AA2EA10090153096
:101FE000FEF718FA032828D1BDF89E000399401A7D
:101FF00040F26D1148439DF89C10029A891AC1EB7A
:10200000011100EB41009DF89B10019A891A4718B5
:10201000072F11DB0DF1190319A222A116A807F051
:1020200021FF16A809F0CEFD05462DB9761C0DF14D
:1020300019011EA007F006FF00BF00BFAFE700BFF9
:102040000AA809F099F8314620A007F0FBFE00BF6E
:10205000A2E700005B4C4F474745525D20E5BC803E
:10206000E5A78BE6B885E7908637E5A4A9E5898DD5
:10207000E79A84E69687E4BBB62E2E2E0D0A000062
:10208000303A2F444154412F000000002E43535654
:102090000000000025642D25642D25642E43535631
:1020A0000000000025732573000000005B4C4F47C3
:1020B0004745525D20E588A0E999A4E697A7E696F2
:1020C00087E4BBB63A2025730D0A00005B4C4F47EE
:1020D0004745525D20E6B885E79086E5AE8CE688F8
:1020E00090EFBC8CE588A0E999A420256420E4B891
:1020F000AAE69687E4BBB60D0A00000010B50122DF
:102100000FA1104809F026F904462CB121460EA073
:1021100007F098FE002010BD14A007F093FE1BA04E
:1021200009F069F804460CB1082C03D119A007F096
:1021300089FE03E0214622A007F084FE0120EAE7A1
:10214000303A000018AA00205B4C4F474745525DCB
:1021500020464154465320E68C82E8BDBDE5A4B13B
:10216000E8B4A53A2025640D0A0000005B4C4F47F7
:102170004745525D20464154465320E68C82E8BDD7
:10218000BDE68890E58A9F0D0A000000303A2F4492
:10219000415441005B4C4F474745525D20E695B0A6
:1021A000E68DAEE79BAEE5BD95E5B7B2E5B0B1E72C
:1021B000BBAA3A20303A2F444154410D0A00000096
:1021C0005B4C4F474745525D20E5889BE5BBBAE72E
:1021D0009BAEE5BD95E5A4B1E8B4A53A2025640D14
:1021E0000A0000002DE910412DED048BADF5357D81
:1021F000B2A806F051F9B2A80AF0BAFA28B90DF55A
:10220000357DBDEC048BBDE810819DF8C80220B976
:102210009DF8C90208B9FFF7ADFE06F067FC9DF80E
:10222000CB029DF8CC12CDE90010BDF8CE3227A22A
:1022300029A1A2A807F016FE3322A2A906A809F038
:10224000D5F80446042C0CD10722A2A906A809F04F
:10225000CDF804462CB900231C2224A106A809F0BD
:102260000FFD002C2BD13046FEF7D3FB41EC180BB1
:102270002846FEF7CEFB41EC190B8DED048B02973F
:102280008DED009B9DF8C9329DF8C8221FA192A830
:1022900007F0E8FD92A8FEF772F880460023424658
:1022A00092A906A809F0ECFC06A809F036FC06A8DD
:1022B00008F048FF92A91BA007F0C4FD03E02146E7
:1022C0001FA007F0BFFD00BF99E70000303A2F4480
:1022D0004154412F0000000025732530346425301F
:1022E0003264253032642E4353560000E697B6E937
:1022F00097B42CE6B8A9E5BAA62CE6B9BFE5BAA60C
:102300002CE58589E785A70A0000000025303264A6
:102310003A253032642C252E31662C25642C252E4E
:1023200030660A005B4C4F474745525D20E5AD984B
:10233000E582A8E68890E58A9F3A20257300000090
:102340005B4C4F474745525D20E5AD98E582A8E5D7
:10235000A4B1E8B4A5EFBC8CE99499E8AFAFE7A0CD
:10236000813A2025640D0A00704700002DE9F041F4
:10237000064600201F4908804FF400711E48FDF7F3
:10238000CBFF4FF4FA730A221CA11F4804F047F850
:1023900001F022FA804624E01648008800F400404C
:1023A000E0B11AA11448FDF7C2FF0446A4B1E41D30
:1023B00022212046FDF7D9FF074667B13D1B102DAE
:1023C00008DA2A4621463046FDF7C3FF0020705543
:1023D000BDE8F08100BF00BF0120F9E70A2001F04D
:1023E0003BF801F0F9F9A0EB0800B0F57A7FD3D300
:1023F0000120EDE7E80000209806002041542B431F
:10240000494653520D0A0000140600205354414916
:10241000502C220070B5A4B005460E46002413E0EF
:102420004FF4FA7221A122A000F0A8F900B90DE042
:10243000022C05D120A007F005FD012024B070BDBD
:10244000C82001F009F8641C032CE9DB00BF4FF43D
:10245000FA7216A11EA000F091F908B10120EDE773
:102460004FF4FA7211A11EA000F088F908B1012002
:10247000E4E733462A461EA1684607F0F3FC42F221
:1024800010720AA1684600F079F920B11EA007F089
:10249000D9FC0120D2E720A8FFF768FF18B920A9CE
:1024A0001FA007F0CFFC0020C8E700004F4B000042
:1024B00041540D0A000000005B4553503832363657
:1024C0005D20E697A0E5938DE5BA940D0A00000023
:1024D00041542B43574D4F44453D310D0A000000F8
:1024E00041542B4349504D55583D310D0A000000D1
:1024F00041542B43574A41503D222573222C22251B
:1025000073220D0A000000005B4553503832363606
:102510005D2057694669E5A4B1E8B4A50D0A00003D
:1025200049503A2025730D0A000000002DE9F043C0
:10253000DBB06448008800F4004010B95BB0BDE82F
:10254000F08361A16248FDF7F2FE074627B161A161
:102550003846FDF7ECFE40B900205A4908804FF498
:1025600000715B48FDF7D8FEE8E759495DA007F028
:1025700069FC00205A905AAA5DA13846FDF74AFF2F
:1025800000205690579058905990549055905BA1C8
:102590003846FDF7CCFE0446C4B1E41D59A12046DF
:1025A000FDF727FF8146B9F1000F0ED0A9EB040615
:1025B000002E09DD102E07DA3246214656A8FDF717
:1025C000C8FE002056A9885500BF00BF4FA138465D
:1025D000FDF7ADFE0546C5B1ED1D4AA12846FDF744
:1025E00008FF8146B9F1000F0ED0A9EB0506002EB9
:1025F00009DD082E07DA3246294654A8FDF7A9FE60
:10260000002054A9885500BF00BF54AA56A941A074
:1026100007F018FC54A8FEF76FF9C6B2314656A869
:10262000FFF704FB3FA30FCB539350AB07C350A856
:10263000FDF7A5FE064650AB32463E4910A807F00E
:1026400011FC10A8FDF79BFE804643463AA1684660
:102650005A9A07F007FC6846FDF791FE86B24FF4E0
:102660007A7332466946394803F0D9FE642000F097
:10267000F3FE1FFA88F24FF47A7310A9334803F07F
:10268000CEFE642000F0E8FE31A168465A9A07F0B9
:10269000E9FB6846FDF773FE86B24FF47A73324663
:1026A00069462A4803F0BBFE2EA007F0CBFB0020B2
:1026B000044908804FF400710548FDF72DFE00BF66
:1026C0003CE70000E80000202B4950442C000000AB
:1026D00098060020474554202F636F6E74726F6C0C
:1026E000000000005B4354524C5D2025730D0A002E
:1026F0002B4950442C25642C000000006465766949
:1027000063653D0026200D0A0000000061637469C6
:102710006F6E3D005B4354524C5D2025733D257325
:102720000D0A00007B22737461747573223A226F64
:102730006B227D001C07060841542B43495053452A
:102740004E443D25642C25640D0A0000140600202B
:1027500041542B434950434C4F53453D25640D0A8A
:10276000000000005B4354524C5D20E5B7B2E59B8E
:102770009EE5A48D4F4B0D0A000000002DE9F843A3
:1027800006460F4614460020204908804FF4007189
:102790001F48FDF7C1FD06E01E480068C0B200906A
:1027A0009DF8000000BF1B48001F006800F02000DB
:1027B0000028F1D13046FDF7E2FD1FFA80F82346EC
:1027C00042463146144803F02AFE17B90020BDE8FE
:1027D000F88301F001F8054611E00C48008800F488
:1027E000004048B139460A48FDF7A1FD08B1002074
:1027F000EDE70020054908800A2000F02DFE00F0DA
:10280000EBFF401BA042E8D30220E0E7E8000020F5
:1028100098060020044800401406002010B590B02F
:102820000446224609A1684607F01CFB4FF4FA62F1
:102830000BA16846FFF7A2FF10B1012010B010BD38
:10284000214608A007F0FEFA0020F7E741542B4389
:1028500049505345525645523D312C25640D0A00CE
:102860004F4B00005B5345525645525D20E7ABAFDE
:10287000E58FA33A25640D0A0000000008B5032285
:10288000002101200DF016FC1249086000220121F0
:102890000A200DF00FFC1049086010A007F0D2FAD2
:1028A00016E014488069401C12498861FFF73EFE1B
:1028B00000226946084800680DF0CCFD012804D1CB
:1028C0009DF8000008B90CF0FBFE32200DF0A2F9D3
:1028D000E7E70000F0000020EC0000205B455350CB
:1028E0005D20554450E4BBBBE58AA1E590AFE58A85
:1028F000A80D0A00A80100201049096801F0200174
:10290000D1B10E4A121D1268D0B20D4A1288C2F31C
:102910000D01B1F5FF7F06DC0A4A5054084A1288BF
:10292000521C074B1A800A2805D1054A128842F426
:102930000042034B1A8000BF70470000004800406F
:10294000E80000209806002072B600BFFEE70022D3
:10295000AFF3008010B4844601200E4B5C7A002C4B
:1029600016D1587A1C54587A03EB8000C0F804C082
:10297000587A03F1080C00F80C20587A421C5A725D
:10298000303008703A2048702F208870CC700020BA
:1029900010BC70476CAC002070B50446B3F5804F96
:1029A00013D1D1E9000540EA05108D6840EA052001
:1029B0008D6928438D8940EA054054F82250064E1F
:1029C0003540284344F8220003E06FF0704044F89B
:1029D0002200002070BD00000000F0CF70B502465C
:1029E000086852F8200020F001000E6842F8260026
:1029F0008868082801D1402300E000234868184374
:102A00008E683043CE6830430E6930434E693043A0
:102A1000CE6930430E6A30434E6A30438E6A30438B
:102A2000CE6A30430E6B40EA060488690443C86BE3
:102A30000443074D45F4806545F4E025086852F8E5
:102A40002000A84320430E6842F82600002070BDF5
:102A50007FFB080010B50346D1E9000440EA0410EA
:102A60008C6840EA04208C8940EA0444088A401EAD
:102A700044EA0054087D801E44EA00608C692043CB
:102A8000541C43F82400002010BD000010B586B08F
:102A900004461422084901A8FDF725FC002C00DAA1
:102AA0000024052C00DD052401A850F8240003496A
:102AB0000968486306B010BD645601083C05002053
:102AC0000146D1ED012AF0EE620AD1ED012AB2EE03
:102AD000043A72EE832AB0EE621AB4EEE00AF1EE26
:102AE00010FA01D800207047B4EEC10AF1EE10FAD6
:102AF00001DB0420F7E731EE602A70EE602AC2EEB7
:102B0000821AB0EE083AF7EE002A41EE832AFCEE74
:102B1000E22A12EE900AC2B2042A00DD0422104614
:102B2000E1E7000038B502460020009000BF92F8AF
:102B30003C00012801D1022038BD012082F83C0070
:102B400000BF0868092816D91068C0680C780A3CCC
:102B500004EB44050724AC40A0431468E0600C7803
:102B60000A3C04EB44048868A0401468E4682043ED
:102B70001468E06013E0106800690C7804EB440509
:102B80000724AC40A043146820610C7804EB440493
:102B90008868A0401468246920431468206148684C
:102BA000072817D21068406B0C79641E04EB84056B
:102BB0001F24AC40A04314686063088880B20C797D
:102BC000641E04EB8404A0401468646B2043146802
:102BD000606331E048680D2817D21068006B0C79EB
:102BE000E41F04EB84051F24AC40A0431468206359
:102BF000088880B20C79E41F04EB8404A0401468B8
:102C0000246B20431468206316E01068C06A0C79B6
:102C10000D3C04EB84051F24AC40A0431468E06223
:102C2000088880B20C790D3C04EB8404A040146841
:102C3000E46A20431468E062194B1A4C1068A04201
:102C400006D10868122803D1586840F48000586003
:102C5000144C1068A0421CD10868102802D00868E3
:102C6000112816D1586840F40000586008681028F0
:102C70000FD10D4800680D4CB0FBF4F000EB800064
:102C80004000009002E00098401E0090009800284C
:102C9000F9D100BF002082F83C0000BF00BF4BE725
:102CA00000230140002001404800002040420F0066
:102CB00001460868C06C704770B5044600250CB921
:102CC000012070BD1549A06A884200D000BF206C69
:102CD00030B9204600F024F80020606484F83C00FD
:102CE000206C00F0100088B9206C20F4885040F06F
:102CF000020020642046FEF7D1FB00206064206CB7
:102D000020F0020040F00100206400E0012500BF37
:102D1000002084F83C0000BF2846D2E70100000FE5
:102D200010B586B00446142101A8FDF7F5FA19493B
:102D3000206888422BD100BF002000901648006810
:102D400040F48060144908600846006800F4806020
:102D5000009000BF00BF00BF002000900E48143854
:102D6000006840F020000C491439086008460068EB
:102D700000F02000009000BF00BF802001900320E1
:102D800002900020039001A9044800F01DFC06B049
:102D900010BD0000002201404438024000140240EF
:102DA00070B504460D4600262068806800F48060F7
:102DB000B0F5806F11D12068806800F48070B0F5A4
:102DC000807F0AD1206C40F02000206400BF0020EA
:102DD00084F83C0000BF012070BD00F0FDFC0646F9
:102DE00018E0681CB0B125B100F0F6FC801BA842C9
:102DF00010D92068006800F0020002280AD0206C78
:102E000040F00400206400BF002084F83C0000BFB4
:102E10000320E1E72068006800F002000228E0D10A
:102E20006FF0120021680860206C40F4007020648C
:102E30002068806800F04050B8B9207EA8B92068AA
:102E4000C06A00F4700020B12068806800F48060DF
:102E500058B9206C20F480702064206C00F48050FD
:102E600018B9206C40F0010020640020B4E7000095
:102E700008B501460020009000BF91F83C000128F1
:102E800001D1022008BD012081F83C0000BF086884
:102E9000806800F00100A0B90868806840F0010077
:102EA0000B6898603F4800683F4BB0FBF3F000EBC5
:102EB0004000009002E00098401E0090009800281A
:102EC000F9D10868806800F00100002860D0086C23
:102ED00040F20163984340F48070086408684068D9
:102EE00000F4806028B1086C20F4005040F4805059
:102EF0000864086C00F48050B0F5805F04D1486C21
:102F000020F00600486401E00020486400BF002073
:102F100081F83C0000BF254A6FF022000B68186062
:102F2000506800F01F0018BB214B0868984213D06E
:102F3000204B0868984204D1101D006800F01F0063
:102F400050B11D4B086898422AD11848001D0068EE
:102F500000F01F00102823D20868806800F040505D
:102F6000F0B90868806840F080400B68986017E00E
:102F70000F4B0868984213D10868806800F04050F1
:102F800070B90868806840F080400B68986007E07E
:102F9000086C40F010000864486C40F00100486480
:102FA00000206FE74800002040420F00002301404E
:102FB00000200140002101400022014070B504467C
:102FC000A56D00F009FC064694F83500022808D0EB
:102FD0008020606500BF002084F8340000BF01201D
:102FE00070BD2068006820F0160021680860206825
:102FF000406920F0800021684861206C08B9A06C0D
:1030000028B12068006820F0080021680860206866
:10301000006820F001002168086010E000F0DCFB8F
:10302000801B05280BD920206065032084F835001B
:1030300000BF002084F8340000BF0320D0E72068E0
:10304000006800F001000028E8D194F85C103F20EF
:103050008840A860012084F8350000BF002084F873
:10306000340000BF00BFBBE7014691F835000228DD
:1030700003D08020486501207047052081F8350085
:103080000868006820F001000A6810600020F3E77B
:103090000146486D70470000F8B5044600200090D6
:1030A0008C4800684FF41651B0FBF1F7A56D2E68FF
:1030B00094F85C1008208840304098B1206800687F
:1030C00000F0040070B12068006820F0040021685E
:1030D000086094F85C1008208840A860606D40F09B
:1030E0000100606594F85C1001208840304068B1B0
:1030F0002068406900F0800040B194F85C10012025
:103100008840A860606D40F00200606594F85C1033
:1031100004208840304068B12068006800F0020058
:1031200040B194F85C1004208840A860606D40F0C5
:103130000400606594F85C1010208840304078B33B
:103140002068006800F0080050B394F85C1010206C
:103150008840A8602068006800F4802080B1206862
:10316000006800F4002028B9206CC8B12046216C0A
:10317000884715E0A06C98B12046A16C88470FE005
:103180002068006800F4807028B92068006820F08A
:10319000080021680860206C10B12046216C884727
:1031A00094F85C10202088403040002865D02068CA
:1031B000006800F0100000285FD094F85C10202018
:1031C0008840A86094F83500052828D12068006858
:1031D00020F01600216808602068406920F0800017
:1031E00021684861206C08B9A06C28B1206800688B
:1031F00020F008002168086094F85C103F208840A7
:10320000A860012084F8350000BF002084F8340055
:1032100000BF206D10B12046216D8847F8BD2068A1
:10322000006800F4802080B12068006800F400206D
:1032300028B9606C10B12046616C88471DE0E06BD6
:10324000D8B12046E16B884717E02068006800F499
:10325000807068B92068006820F01000216808605C
:10326000012084F8350000BF002084F8340000BF3E
:10327000E06B10B12046E16B8847606D38B3606D3C
:1032800000F00100F0B1052084F8350020680068E6
:1032900020F001002168086000BF0098401C0090E9
:1032A000B84200D905E02068006800F0010000285D
:1032B000F3D100BF012084F8350000BF002084F85E
:1032C000340000BFE06C10B12046E16C884700BFBD
:1032D000A4E70000480000202DE9F0410446002545
:1032E00000F07AFA074614B90120BDE8F081606A5F
:1032F00000B100BF022084F8350000BF002084F830
:10330000340000BF2068006820F0010021680860D8
:103310000AE000F061FAC01B052805D9202060658D
:10332000032084F83500E0E72068006800F0010021
:103330000028EED12068056821480540D4E9010144
:103340000843E16808432169084361690843A169AA
:103350000843E1690843216A08430543606A042879
:1033600003D1D4E90B0108430543206805602068B8
:10337000456925F00705606A0543606A04280DD198
:10338000A06A0543E06A48B12046FEF787FD28B1F0
:1033900040206065012084F83500A6E7206845617B
:1033A0002046FEF761FD064694F85C103F208840F9
:1033B000B06000206065012084F83500002094E7AB
:1033C0003F8010F02DE9F04704460D4616461F4693
:1033D0004FF00008D4F8589000BF94F8340001284A
:1033E00002D10220BDE8F087012084F8340000BF3C
:1033F00094F83500012825D1022084F835000020FA
:1034000060653B46324629462046FEF79CFD94F80F
:103410005C103F208840C9F808002068006840F030
:10342000160021680860206C28B12068006840F010
:103430000800216808602068006840F001002168E9
:10344000086006E000BF002084F8340000BF4FF0A1
:1034500002084046C6E7000070B5044600F0BCF91B
:1034600006462546681C10B104480078054400BF94
:1034700000F0B2F9801BA842FAD370BD44000020CE
:1034800000B587B0142102A8FCF746FF4848006841
:1034900008B107B000BD01204549086000BF002009
:1034A00001904448006840F0010042490860084625
:1034B000006800F00100019000BF00BF4EF23F0025
:1034C00002900220039000200490032005900C201D
:1034D000069002A9384800F077F84FF48050029027
:1034E0000220039001200490032005900C200690F8
:1034F00002A9314800F068F840F23F4002900220F3
:10350000039000200490032005900C20069002A94F
:103510002A4800F059F84FF680700290022003907C
:1035200001200490032005900C20069002A9244855
:1035300000F04AF84CF23370029002200390012010
:103540000490032005900C20069002A91D4800F06D
:103550003BF84FF46050029002200390002004904A
:10356000032005900C20069002A9164800F02CF8C4
:103570004FF4805002900220039001200490032019
:1035800005900C20069002A90C4800F01DF80320BD
:1035900002900220039000200490032005900C204C
:1035A000069002A9064800F00FF800BF71E700007E
:1035B0003400002038380240001402400018024055
:1035C00000100240000C0240F8B502460B460025F0
:1035D000002400200021D6E0012606FA01F51E682D
:1035E00006EA0504AC4274D11E7906F00306012EEA
:1035F00004D01E7906F00306022E13D190684F0006
:103600000326BE40B0434F00DE68BE4030439060AA
:10361000506801268E40B0431E79C6F300168E40D6
:10362000304350601E7906F00306032E09D0D0689F
:103630004F000326BE40B0434F009E68BE4030435B
:10364000D0601E7906F00306022E13D1CF0802F1D6
:10365000200656F827004E07F70E0F26BE40B0434F
:103660004F07FF0E1E69BE403043CF0802F120060F
:1036700046F8270010684F000326BE40B0431E796D
:1036800006F003064F00BE40304310605E6806F44B
:103690004036002E76D000BF002600963C4E36689D
:1036A00046F480463A4F3E603E46366806F4804611
:1036B000009600BF00BF374E8F0856F827008E07D0
:1036C000370F0F26BE40B043334EB24202D1002620
:1036D00024E057E0314EB24201D101261EE0304EC7
:1036E000B24201D1022619E02E4EB24201D1032688
:1036F00014E02D4EB24201D104260FE02B4EB2420F
:1037000001D105260AE02A4EB24201D1062605E083
:10371000284EB24201D1072600E008268F073F0F4E
:10372000BE4030431B4E8F0846F82700224E3068BB
:10373000A0435E6806F4801606B120431E4E30603A
:10374000361D3068A0435E6806F4001606B12043BB
:10375000194E361D3060184E361F3068A0435E6823
:1037600006F4003606B12043134E361F3060361F74
:103770003068A0435E6806F4803606B120430E4EE2
:10378000083E3060491C1029FFF426AFF8BD000048
:103790004438024008380140000002400004024062
:1037A00000080240000C02400010024000140240D9
:1037B00000180240001C0240083C01400246136908
:1037C0000B400BB1012000E0002070470AB181617D
:1037D00001E00B04836170470148006870470000F6
:1037E0003C00002070B504460CB9012070BD94F86F
:1037F0003D0028B9002084F83C00204600F0DAF8AB
:10380000242084F83D002068006820F00100216831
:1038100008602068006840F4004021680860206863
:10382000006820F400402168086000F07FFB054636
:103830005C496068884206D85B48854201D2012015
:1038400007E0002005E05948854201D2012000E050
:103850000020012800D1C9E75548B5FBF0F62068E3
:10386000406820F03F003043216848604D4960685F
:10387000884201D8701C07E04FF4967070434FF4F3
:103880007A71B0FBF1F0401C2168096A21F03F0118
:1038900008432168086243496068884214D8681E5A
:1038A00061684900B0FBF1F0401CC0F30B00042834
:1038B00001D204203DE0681E61684900B0FBF1F0D0
:1038C000401CC0F30B0034E0A06838B9681E616882
:1038D00001EB4101B0FBF1F0401C0AE0681E616899
:1038E00001EBC10202EB0111B0FBF1F0401C40F40E
:1038F0008040C0F30B0008B901201AE0A06848B965
:10390000681E616801EB4101B0FBF1F0401CC0F39F
:103910000B000CE0681E616801EBC10202EB0111B3
:10392000B0FBF1F0401CC0F30B0040F4804040F4C9
:1039300000402168C9694CF6FF7291430843216831
:10394000C861D4E9070108432168096821F0C00172
:10395000084321680860D4E9031008432168896896
:1039600048F2FF329143084321688860D4E9050199
:1039700008432168C96821F0FF0108432168C86035
:103980002068006840F00100216808600020206481
:10399000202084F83D000020206384F83E0000BF12
:1039A00024E70000A086010080841E0000093D007D
:1039B00040420F0010B586B00446142101A8FCF760
:1039C000ABFC1B492068884230D100BF002000902A
:1039D0001848006840F00200164908600846006870
:1039E00000F00200009000BF00BF4FF44070019053
:1039F00012200290012003900320049004200590DF
:103A000001A90D48FFF7E0FD00BF00200090094824
:103A10001030006840F40010064910310860084674
:103A2000006800F40010009000BF00BF06B010BD99
:103A3000005400403038024000040240034800684F
:103A40000349097808440149086070473C00002098
:103A50004400002010B50D48006840F400700B4988
:103A600008600846006840F4806008600846006806
:103A700040F480700860032000F0ACF80F2000F0E4
:103A800007F800F02BF8002010BD0000003C0240B9
:103A900070B504460E4800784FF47A71B1FBF0F02F
:103AA0000C490968B1FBF0F5284601F035FB08B177
:103AB000012070BD102C07D200222146501E00F0BC
:103AC0004BF80548046001E00120F2E70020F0E730
:103AD00044000020480000204000002008B500BF3E
:103AE000002000901148006840F480400F490860B1
:103AF0000846006800F48040009000BF00BF00BF8F
:103B000000200090081F006840F08050091F0860E6
:103B10000846006800F08050009000BF00BF0022FF
:103B20000F21901E00F018F808BD00004438024034
:103B30000146084600280DDB00BF00BF00F01F0350
:103B400001229A4043099B0003F1E023C3F80021BE
:103B500000BF00BF00BF70472DE9F05F80460D46F3
:103B60001646002706F092F9074639462A4633469C
:103B700001F00700C0F1070ABAF1040F02D94FF0B3
:103B8000040A01E0C0F1070AD14600F1040ABAF1C3
:103B9000070F02D24FF0000A01E0A0F1030AD44659
:103BA0004FF0010A0AFA09FAAAF1010A0AEA020A1E
:103BB0000AFA0CFA4FF0010B0BFA0CFBABF1010BFC
:103BC0000BEA030B4AEA0B042146404606F066F96D
:103BD000BDE8F09F00BF00F00702064B19684FF6E2
:103BE000FF031940044B0B4343EA0221014B1960C8
:103BF00000BF70470CED00E00000FA05F8B5044680
:103C000000250026207800F0010020B9207800F07F
:103C1000040004282FD100205B498866FFF7DCFDF3
:103C2000054606E0FFF7D8FD401B022801D9032016
:103C3000F8BD56480068C0F3C0600028F2D1606843
:103C40008101207A41EA00705049843108600120E6
:103C50004D498866FFF7C0FD054606E0FFF7BCFD4D
:103C6000401B022801D90320E2E748480068C0F35E
:103C7000C0600028F2D0207800F0020002287DD138
:103C800000BF0020009041484030006840F0805064
:103C90003E49403108600846006800F080500090BE
:103CA00000BF00BF3A48006840F48070384908609F
:103CB000FFF792FD054606E0FFF78EFD401B022848
:103CC00001D90320B4E73248006800F4807000286E
:103CD000F2D02E487030006800F440764EB3A089D0
:103CE00000F44070B04224D028487030006820F4BE
:103CF0004076012027490860002008602348703082
:103D00000660006800F0010098B1FFF765FD054608
:103D100008E0FFF761FD401B41F28831884201D97C
:103D2000032085E7194870300068C0F34000002880
:103D3000EFD000BFA08900F44070B0F5407F0CD1F7
:103D400012480830006820F4F810134AE168114066
:103D500008430E490831086007E00C480830006845
:103D600020F4F810094908310860084870300068EC
:103D7000A189C1F30B010843044900E002E070315E
:103D8000086000BF002053E70000474200380240AF
:103D900000700040400E4742FFFCFF0F70B5044624
:103DA0000D460CB9012070BD5848006800F00700AE
:103DB000A84209D255490D700846006800F0070076
:103DC000A84201D00120EEE7207800F0020002288E
:103DD0001DD1207800F00400042805D14C4800686B
:103DE00040F4E0504A490860207800F008000828B4
:103DF00005D14748006840F46040454908604448A0
:103E0000006820F0F000A16808434149086020786C
:103E100000F00100A8B36068012807D13C480838C9
:103E20000068C0F34040B8B90120BCE760680228D0
:103E300002D06068032807D1354808380068C0F30D
:103E4000406048B90120AEE7314808380068C0F347
:103E5000400008B90120A6E72D48006820F00300C3
:103E6000616808432A490860FFF7B6FC064609E086
:103E7000FFF7B2FC801B41F28831884202D903204F
:103E800091E707E02248006800F00C006168B0EBA1
:103E9000810FEDD11D48006800F00700A84209D944
:103EA0001A490D700846006800F00700A84201D0CA
:103EB000012078E7207800F00400042807D1144896
:103EC000006820F4E050E168084311490860207858
:103ED00000F00800082808D10D48006820F4604070
:103EE000216940EAC1000A49086000F03FF808492A
:103EF0000968C1F30311074A515CC84006490860CC
:103F000006480068FFF7C4FD00204CE7003C024073
:103F100008380240F40C010848000020400000204E
:103F200001480068704700004800002000B5FFF716
:103F3000F7FF04490968C1F38221034A515CC84074
:103F400000BD000008380240040D010800B5FFF76D
:103F5000E7FF04490968C1F34231034A515CC84094
:103F600000BD000008380240040D01082DE9F047AB
:103F7000002400250026A1462548006800F00C001A
:103F800020B1042805D008283AD105E0DFF8849054
:103F900039E0DFF8849036E01D48001F006800F02B
:103FA0003F041B48001F006800F4800078B11A48E5
:103FB0001749091F0968C1F38811A0FB0170014668
:103FC000224600233846FCF75DF905460EE011480D
:103FD0000F49091F0968C1F38811A0FB0170014650
:103FE000224600233846FCF74DF905460848001FD5
:103FF0000068C0F30140401C4600B5FBF6F902E042
:10400000DFF8109000BF00BF4846BDE8F087000011
:10401000083802400024F40000127A00F8B5044683
:104020000CB90120F8BD207800F00100002874D000
:10403000F948006800F00C0004280DD0F64800682C
:1040400000F00C00082813D1F348001F006800F4AA
:104050008000B0F5800F0BD1EF4808380068C0F33E
:104060004040002859D06068002856D10120D9E787
:1040700000BF6068B0F5803F08D1E74808380068A5
:1040800040F48030E449083908601EE06068B0F50B
:10409000A02F0DD1E0480838006840F48020DE49A8
:1040A000083908600846006840F4803008600CE079
:1040B000D9480838006820F48030D74908390860AA
:1040C0000846006820F48020086000BF606890B156
:1040D000FFF782FB054606E0FFF77EFB401B6428E6
:1040E00001D903209EE7CC4808380068C0F340405F
:1040F0000028F1D011E0FFF76FFB054606E0FFF75F
:104100006BFB401B642801D903208BE7C2480838A9
:104110000068C0F340400028F1D1207800F0020090
:1041200002285FD1BC48006800F00C0058B1BA48C2
:10413000006800F00C0008281CD1B748001F006878
:1041400000F48000B0B9B44808380068C0F34000FB
:1041500020B1E068012801D0012063E7AE480838AB
:10416000006820F0F800216940EAC100AA49083936
:10417000086037E0E06800B30120A8490860FFF755
:104180002BFB054606E0FFF727FB401B022801D961
:10419000032047E7A04808380068C0F34000002823
:1041A000F1D09D480838006820F0F800216940EA05
:1041B000C10099490839086014E000209749086057
:1041C000FFF70AFB054606E0FFF706FB401B022847
:1041D00001D9032026E7904808380068C0F3400062
:1041E0000028F1D1207800F0080008282CD160695F
:1041F000A8B101208A490860FFF7EEFA054606E0FB
:10420000FFF7EAFA401B022801D903200AE7824897
:104210006C300068C0F340000028F1D014E00020AA
:104220007F490860FFF7D8FA054606E0FFF7D4FAA1
:10423000401B022801D90320F4E677486C3000685F
:10424000C0F340000028F1D1207800F004000428D9
:1042500070D1002770483830006800F0805090B965
:1042600000BF002000906C483830006840F080505B
:104270006949383108600846006800F080500090B5
:1042800000BF00BF01276748006800F48070B0B924
:104290006448006840F4807062490860FFF79CFA47
:1042A000054606E0FFF798FA401B022801D90320D3
:1042B000B8E65C48006800F480700028F2D000BFC7
:1042C000A068012808D154486830006840F0010017
:1042D0005149683108601DE0A06805280DD14E489D
:1042E0006830006840F004004B49683108600846B7
:1042F000006840F0010008600CE047486830006842
:1043000020F001004449683108600846006820F048
:104310000400086000BFA068A8B1FFF75DFA054679
:1043200009E0FFF759FA401B41F28831884202D96F
:10433000032077E626E0384868300068C0F3400084
:104340000028EED013E0FFF747FA054608E0FFF734
:1043500043FA401B41F28831884201D9032061E6CB
:104360002D4868300068C0F340000028EFD1012FCD
:1043700007D129483830006820F08050264938316C
:10438000086000BFA069002845D02348006800F0FD
:104390000C0008285DD0A069022845D100201F49E3
:1043A0000866FFF719FA054606E0FFF715FA401B05
:1043B000022801D9032035E6174808380068C0F301
:1043C00040600028F1D1D4E907010843616A40EA5E
:1043D00081110122A06AC2EB500041EA00412C2069
:1043E000005D41EA00600C49091F086001200B498B
:1043F0000866FFF7F1F9054606E0FFF7EDF9401B07
:10440000022801D903200DE6034808380068C0F3EC
:1044100040600028F1D049E00838024000004742DF
:10442000800E474200700040002021490866FFF7D7
:10443000D3F9054606E0FFF7CFF9401B022801D962
:104440000320EFE51B480068C0F340600028F2D16C
:104450002CE0A069012800D1E4E51648001D06689B
:10446000A069012820D006F48001E06981421BD1B7
:1044700006F03F01206A814216D147F6C0703040F5
:10448000616AB0EB811F0FD106F440310122A06AAE
:10449000C2EB5000B1EB004F06D106F070612C204A
:1044A000005DB1EB006F01D00120BBE50020B9E554
:1044B000000047420038024070B505460B461646DC
:1044C0000024286840680E4900EA0104200CD870D6
:1044D000C4F30420587004F03F009870C4F34230D5
:1044E00018705EB9D87802F051FFD870587802F091
:1044F0004DFF5870987802F049FF9870002070BD09
:104500003FFFFF0070B504460B46164600252068A5
:10451000806A586020680069C0F30E0098602068C7
:1045200000680E4900EA0105C5F305401870C5F39F
:104530000620587005F07F009870A80DD8705EB9FD
:10454000187802F023FF1870587802F01FFF587097
:10455000987802F01BFF9870002070BD7F7F7F006D
:1045600070B504460CB9012070BD607F20B90020F1
:104570002077204600F04EF8022060772068C0685F
:10458000C0F3001000283CD100BFCA202168486257
:1045900053202168486200BF204602F002FF054612
:1045A000EDB9206880681A4908402168886021694F
:1045B0006068084361690843216889680843216885
:1045C00088602168E068086120680169208941EA03
:1045D000004021680861204602F008FF05465DB9E9
:1045E0002068006C20F48020216808642068006C3A
:1045F000A16908432168086400BFFF202168486260
:1046000000E000250DB9012060772846ACE70000E6
:10461000BFFF8FFF1FB5044600200090019002905D
:1046200003900949206888420CD102200090C00103
:1046300003906846FFF7E2FA08B1FEF785F901201A
:10464000024908601FBD0000002800403C0E4742A0
:1046500070B5044600250B482168C860FFF7BCF818
:10466000054607E0FFF7B8F8401BB0F57A7F01D99F
:10467000032070BD2068C06800F020000028F1D041
:104680000020F6E75F7F010010B5FDF72DFA10BDA1
:10469000F0B589B004460E460027032084F83400A4
:1046A000606C032820D0B6F5805F04D1A06B40F089
:1046B0008050A0631CE0B6F5006F07D1204603F0E0
:1046C000A6FD0546A06B2843A06311E03EB9204635
:1046D00003F069FD0546A06B2843A06308E0A06BCA
:1046E00040F00060A06303E0A06B40F08050A06346
:1046F000A06B38B1174821688863012084F8340022
:10470000012713E060680390A0680490E0680590BA
:10471000069660690790A069089006A807C88DE80A
:104720000700206803A90EC902F0A4FE4FF400712F
:10473000206802F017FF054635B1064821688863F6
:10474000A06B2843A0630127012084F83400384679
:1047500009B0F0BDFF0540007047000010B50246EB
:10476000506E800F0870506EC0F383604870506EBA
:10477000C0F301608870506E000CC870B2F864001D
:10478000000A087192F864004871906E000DC880AC
:10479000906EC0F3034008726820805AC0F3C030A6
:1047A00048726820805AC0F3803088726820805A2E
:1047B000C0F34030C8726820805AC0F300300873DC
:1047C00000204873506C002836D16820805A80053C
:1047D000030DD06E43EA90700861D06EC0F3C260E2
:1047E0000875D06EC0F302604875D06EC0F34250B9
:1047F0008875D06EC0F38240C875D06EC0F3C230E9
:1048000008760869401C50650B7E506D03F0070365
:104810009B1C01249C4060435065087A00F00F0304
:10482000012098409065D2E915035B0A5843D06592
:104830004FF40073136621E0506C012813D16820F7
:10484000805C8006830AD06E43EA104008610869E4
:10485000401C83025365536DD3654FF40073936519
:10486000936D13660AE02E4813689863906B40F0CE
:1048700080509063012082F8340010BD6C20805A73
:10488000C0F3803001F8190F6C20805AC0F3C610B5
:1048900048706C20805C00F07F008870106FC00F43
:1048A000C870106FC0F341700871106FC0F3826060
:1048B0004871106FC0F383508871106FC0F340507F
:1048C000C87100200872106FC0F300404872702059
:1048D000805AC0F3C03088727020805AC0F3803094
:1048E000C8727020805AC0F3403008737020805A1C
:1048F000C0F3003048737020805AC0F38120887361
:104900007020805AC0F30120C8737020805CC0F30F
:10491000460008740120487419390020ADE70000F2
:10492000FF0540000246506C0860906C4860D06CF7
:104930008860106DC860506D0861906D4861D06DE1
:104940008861106EC86100207047F8B504460020E9
:1049500000906946204603F00EFC054615B1A06B99
:104960002843A0630098C0F343263046F8BD0000FA
:1049700070B50446256B2068406BC0F3C03030B181
:1049800005F0080018B1204603F0D0FBF8E02068DD
:10499000406BC0F30020002862D04FF48070216883
:1049A00088632068C06B4CF23A3188432168C86341
:1049B0002068C06A20F001002168C86205F0080084
:1049C00038B305F0020010B905F0200050B120689E
:1049D00002F00CFF06462EB1A06B3043A0632046C8
:1049E000FFF7BAFE40F23A5021688863012084F84C
:1049F00034000020206305F0010010B905F002002A
:104A000018B1204600F0A2FABAE0204600F0A2FA5F
:104A1000B6E005F080000028B8D005F0200050B1C5
:104A2000206802F0E3FE06462EB1A06B3043A0637F
:104A30002046FFF791FE05F001000028A6D105F001
:104A400002000028A2D12068C06A20F00800216876
:104A5000C862012084F83400204600F07BFA8FE021
:104A60002068406BC0F3803030B105F0080018B109
:104A7000204603F000FC83E02068406B40F23A21BE
:104A8000084008B1012000E00020002878D020680C
:104A9000406BC0F3400018B1A06B40F00200A0636F
:104AA0002068406BC0F3C00018B1A06B40F0080054
:104AB000A0632068406BC0F3401018B1A06B40F0B9
:104AC0002000A0632068406BC0F3001018B1A06BF9
:104AD00040F01000A0632068406BC0F3402018B184
:104AE000A06B40F00800A06340F23A702168886330
:104AF0002068C06B40F23A3188432168C86320685F
:104B000002F074FEA16B0843A06305F0080040B1F9
:104B1000012084F83400002020632046FFF71CFEAB
:104B20002EE005F0800000B305F0100010B905F08C
:104B3000200050B11348E16B0865E06BFEF794FA72
:104B400098B1E06B03F041F91AE005F0010010B9EB
:104B500005F0020050B10C48216C0865206CFEF78E
:104B600083FA10B1206C03F003F909E00020A06380
:104B7000012084F83400002020632046FFF784FDE4
:104B800070BD0000CB7D0008717D000810B50446A3
:104B90000CB9012010BD94F8340020B90020207712
:104BA000204600F065F8032084F83400204600F029
:104BB0000BF808B10120EDE70020A063206301207D
:104BC00084F834000020E5E730B589B004460020C1
:104BD000039004900590069007907620089006A810
:104BE00007C88DE80700206803A90EC902F042FC3F
:104BF00000201D490860206802F056FC01201A4977
:104C0000A039C1F8A0000220FEF726FC204603F0E0
:104C100027FA054645B1012084F83400A06B2843EB
:104C2000A063012009B030BD204603F098F9054685
:104C30003DB1012084F83400A06B2843A06301201B
:104C4000F0E74FF40071206802F08CFC05464DB18E
:104C5000064821688863A06B2843A063012084F87C
:104C60003400DFE70020DDE7A0802542FF0540009B
:104C700010B586B00446142101A8FBF74DFB584936
:104C8000206888427ED100BF00200090554800680F
:104C900040F40060534908600846006800F4006072
:104CA000009000BF00BF00BF002000904D481438A6
:104CB000006840F004004B49143908600846006859
:104CC00000F00400009000BF00BF00BF0020009073
:104CD0000846006840F0080008600846006800F0D8
:104CE0000800009000BF00BF4FF4F8500190022070
:104CF000029001200390032004900C20059001A94C
:104D00003948FEF761FC0420019002200290012046
:104D10000390032004900C20059001A93348FEF76E
:104D200053FC3348334908604FF00060486000216D
:104D300030488160C1604FF4806101618900416148
:104D4000890081612021C16109030162042141625E
:104D5000032181624FF40001C16289100163FEF7F3
:104D6000BBFA08B1FDF7F0FD00BF22482064846360
:104D700000BF1F484830204908604FF0006048607D
:104D8000402100E029E01C4881600021C1604FF40F
:104D90008061016189004161890081612021C161D7
:104DA0000903016204214162032181624FF4000181
:104DB000C16289100163FEF78FFA08B1FDF7C4FDE7
:104DC00000BF0D48E063846300BF0022052131204D
:104DD000FEF7C2FE3120FEF7ABFE06B010BD0000AC
:104DE000002C01404438024000080240000C024000
:104DF00058640240A4030020040400202DE9F0437D
:104E000087B004460F4691461D46C8463FB9A06B81
:104E100040F00060A063012007B0BDE8F08394F883
:104E2000340001287ED10020A06308EB0501E06D6D
:104E3000814205D9A06B40F00070A0630120EBE730
:104E4000032084F8340000202168C8622068C06B09
:104E500040F22A3108432168C8633848216CC8638E
:104E60003748216CC8640020216C08650021206C43
:104E70008160206C0068006820F0C000216C8968A7
:104E80000843216C096808606A029308226802F1ED
:104E900080013A46206CFEF795FA80B12068C06B1D
:104EA00020F495702168C863264821688863A06B48
:104EB00040F08040A063012084F83400ACE701207A
:104EC00021490860606C012801D04FEA48284FF062
:104ED000FF3001906802029090200390022004901D
:104EE000002005900120069001A9206802F095FAA3
:104EF000012D07D9822020634146206802F09AFBE9
:104F0000064606E0812020634146206802F0AEFBA1
:104F1000064676B10B4821688863A06B3043A063D6
:104F2000012000E007E084F8340000202063012025
:104F300072E7002070E702206EE70000297D00087C
:104F4000B57C0008FF0540008C85254210B5FCF7B4
:104F50000DFE10BD10B5FCF71FFE10BD2DE9F0438E
:104F600087B00446884691461D464F46B8F1000F6B
:104F700007D1A06B40F00060A063012007B0BDE83E
:104F8000F08394F83400012874D10020A0637919CB
:104F9000E06D814205D9A06B40F00070A063012054
:104FA000ECE7032084F8340000202168C862206800
:104FB000C06B40F21A2108432168C8633848E16B8E
:104FC000C8633848E16BC8640020E16B0865606C19
:104FD000012800D07F02012D07D9A0202063394687
:104FE000206802F021FC064606E090202063394646
:104FF000206802F035FC064666B12B4821688863BC
:10500000A06B3043A063012084F8340000202063AB
:105010000120B3E70120254908604021E06B816051
:10502000E06B0068006820F0C000E16B896808430D
:10503000E16B0968086069028B08216801F1800250
:105040004146E06BFEF7BEF9A8B12068C06B40F2A4
:105050001A2188432168C863134821688863A06BBC
:1050600040F08040A063012084F8340000202063D9
:10507000012083E711E04FF0FF30019068020290B9
:10508000902003900020049005900120069001A933
:10509000206802F0C2F9002070E702206EE70000ED
:1050A000B97D0008B57C0008FF0540008C852542CD
:1050B00070B504460E4615460CB9012070BD94F833
:1050C000490028B9002084F84800204600F01FF865
:1050D00004F108012068FDF781FC3146A2682068D0
:1050E000FDF7B8FC2946236BD4E90102FDF754FC17
:1050F000A168206850F8210040F00100A2682168F2
:1051000041F82200012084F849000020D6E710B5BC
:105110000446FEF7B5F910BD70B504462546681E75
:10512000B0F1807F01D301200FE0681E4FF0E02135
:1051300048610F214FF0FF3004F0B0FE00204FF027
:10514000E021886107200861002070BD704770472A
:1051500030B502460B4600BF92F83C00012801D151
:10516000022030BD012082F83C0000BF022082F8FE
:105170003D00106844681068816824F07004186865
:10518000044310684460184D1068A8421BD0106892
:10519000B0F1804F17D0154D1068A84213D0144DB0
:1051A0001068A8420FD0134D1068A8420BD0124DC2
:1051B0001068A84207D0114D1068A84203D0104DC6
:1051C0001068A84205D121F0800158680143106899
:1051D0008160012082F83D0000BF002082F83C0081
:1051E00000BF00BFBDE70000000001400004004018
:1051F00000080040000C0040000401400040014055
:105200000018004010B504460CB9012010BD94F8F8
:105210003D0028B9002084F83C00204600F026F824
:10522000022084F83D00211D206804F089F8012047
:1052300084F8460000BF84F83E0001213F2001555C
:10524000402001554120015500BF00BF012084F8D6
:10525000420043200155442001554520015500BF1F
:10526000012084F83D000020D0E7000010B586B092
:105270000446142101A8FBF74FF8444920688842EE
:1052800040D100BF002000904148006840F001007C
:105290003F4908600846006800F00100009000BF28
:1052A00000BF00BF0020009039481438006840F06B
:1052B00001003749143908600846006800F0010011
:1052C000009000BF00BF88150190022002900120CD
:1052D0000390022004900120059001A92D48FEF7BB
:1052E00073F9002205211920FEF736FC1920FEF77C
:1052F0001FFC002205211B20FEF72EFC1B20FEF7C1
:1053000017FC41E02068B0F1804F11D100BF0020B0
:1053100000901F48001F006840F001001C49091F51
:1053200008600846006800F00100009000BF2BE014
:1053300019492068884211D100BF0020009014480C
:10534000001F006840F002001149091F086008466C
:10535000006800F00200009000BF15E00F492068CF
:10536000884211D100BF002000900948001F00684A
:1053700040F004000649091F08600846006800F074
:105380000400009000BF00BF06B010BD0000014047
:105390004438024000000240000400400008004081
:1053A000014691F83D00012801D0012070470220FC
:1053B00081F83D001A4B086898421BD00868B0F18C
:1053C000804F17D0174B0868984213D0164B0868C7
:1053D00098420FD0154B086898420BD0144B0868C0
:1053E000984207D0134B0868984203D0124B0868C4
:1053F00098420CD10868806800F00702062A0CD099
:105400000868006840F001000B68186005E0086853
:10541000006840F001000B6818600020C6E700003B
:10542000000001400004004000080040000C004063
:10543000000401400040014000180040014600BF48
:105440000868006A41F21112104050B90868006AF9
:105450009210104028B90868006820F001000A681E
:10546000106000BF012081F83D00002070472DE949
:10547000F04104460D46002700BF94F83C00012887
:1054800002D10220BDE8F081012084F83C0000BF79
:10549000022084F83D002068866826F0770626F40E
:1054A0007F46206886602868502833D00CDC20288E
:1054B00050D004DC00284BD0102851D149E03028CE
:1054C00049D040284CD139E060282DD0702807D031
:1054D000B0F5805F03D0B0F5005F41D10DE041E051
:1054E000D5E902136A68206803F0ABFF206886687C
:1054F00046F077062068866034E0D5E902136A68D2
:10550000206803F09EFF2068806840F48040216896
:10551000886027E0EA686968206804F083F8502111
:10552000206803F099FF1DE0EA686968206804F0CC
:10553000D5F86021206803F08FFF13E0EA686968FE
:10554000206804F06FF84021206803F085FF09E02F
:1055500000BF00BF00BF2968206803F07DFF01E0A5
:10556000012700BF00BF012084F83D0000BF0020DC
:1055700084F83C0000BF384684E7000070B505465B
:105580004A492868884276D181154948FEF716F9BC
:10559000E0B100BF47480068006A20F00A004549B2
:1055A0000968086243480068006A40F00200414907
:1055B0000968086200BF00203E49096848623E4809
:1055C000007840F010003C4908706DE00021394837
:1055D00000F0A4FC84B200BF36480068006A20F0E6
:1055E0000A0034490968086232480068006A314993
:1055F0000968086200BF3048007800F010000028F9
:105600004CD02D48007800F08000A8B3B4F5967F08
:105610000DDDB4F5487F0ADA2848006840082749BC
:1056200008600846006820F00040086036E0B4F5E5
:10563000AF6F0DDDB4F5E16F0ADA2048006840086D
:105640001E4908600846006840F00040086025E0F8
:10565000B4F5FA6F22DD40F6B83084421EDA1848FD
:105660000078401C164908701348007800F0F000DC
:105670001149087012E018E0FFE741F26800844227
:105680000CDD41F25C20844208DA0B48007840F0DF
:105690008000094908700020094908700648007810
:1056A00020F010000449087000BF70BD00000140E8
:1056B0000000024064040020F8000020FC000020EC
:1056C000000100202DE9F04104460D461646002752
:1056D00000BF94F83C00012802D10220BDE8F0810F
:1056E000012084F83C0000BF96B9EB68D5E90012B0
:1056F000206803F0ABFF2068806920F00C0021686F
:10570000886120688069A96808432168886141E050
:10571000042E13D1EB68D5E90012206803F0F2FFE4
:105720002068806920F44060216888612068806971
:10573000A96840EA0120216888612BE0082E12D177
:10574000EB68D5E90012206803F0F9FF2068C06912
:1057500020F00C002168C8612068C069A96808436E
:105760002168C86116E00C2E13D1EB68D5E9001250
:10577000206804F000F82068C06920F440602168C7
:10578000C8612068C069A96840EA01202168C86131
:1057900000E0012700BF002084F83C0000BF38462D
:1057A0009CE710B504460CB9012010BD94F83D00EB
:1057B00028B9002084F83C00204600F025F802209B
:1057C00084F83D00211D206803F0BAFD012084F813
:1057D000460000BF84F83E0001213F2001554020D3
:1057E00001554120015500BF00BF012084F842004F
:1057F00043200155442001554520015500BF01209B
:1058000084F83D000020D0E7704700002DE9F04308
:1058100004460D46002615B994F83E000BE0042D11
:1058200002D13F20005D06E0082D02D14020005D3E
:1058300001E04120005D804615B994F842000BE07C
:10584000042D02D14320005D06E0082D02D1442042
:10585000005D01E04520005D8146B8F1010F02D1F5
:10586000B9F1010F02D00120BDE8F0831DB902207B
:1058700084F83E000EE0042D03D102213F200155A3
:1058800008E0082D03D102214020015502E0022149
:10589000412001551DB9022084F842000EE0042D7C
:1058A00003D102214320015508E0082D03D1022134
:1058B0004420015502E002214520015535B1042D57
:1058C0000BD0082D10D00C2D1CD114E02068C0681E
:1058D00040F002002168C86016E02068C06840F00F
:1058E00004002168C8600FE02068C06840F008002C
:1058F0002168C86008E02068C06840F01000216896
:10590000C86001E0012600BF00BF86BB0122294616
:10591000206803F085FD1A49206888421BD0206862
:10592000B0F1804F17D017492068884213D016492C
:10593000206888420FD01549206888420BD014494E
:105940002068884207D013492068884203D0124952
:10595000206888420CD12068806800F00707062F75
:105960000CD02068006840F001002168086005E064
:105970002068006840F0010021680860304673E745
:10598000000001400004004000080040000C0040FE
:1059900000040140004001400018004070B504467A
:1059A0002068C5682068066906F00200022819D13F
:1059B00005F00200022815D1401F2168086101206E
:1059C00020772068806900F0030018B12046FFF7B7
:1059D000D5FD05E0204600F013F9204600F0E0F97F
:1059E0000020207706F00400042819D105F00400F7
:1059F000042815D1C043216808610220207720685F
:105A0000806900F4407018B12046FFF7B7FD05E04B
:105A1000204600F0F5F8204600F0C2F9002020777B
:105A200006F00800082819D105F00800082815D14B
:105A3000C04321680861042020772068C06900F015
:105A4000030018B12046FFF799FD05E0204600F05D
:105A5000D7F8204600F0A4F90020207706F01000C7
:105A6000102819D105F01000102815D1C043216865
:105A70000861082020772068C06900F4407018B1E0
:105A80002046FFF77BFD05E0204600F0B9F82046F0
:105A900000F086F90020207706F0010048B105F0FB
:105AA000010030B16FF0010021680861204600F06C
:105AB000FFF906F08000802809D105F080008028D9
:105AC00005D1C043216808612046FFF73FFB06F07F
:105AD0004000402809D105F04000402805D1C043CE
